:020000040000FA
:100000000C945E000C9486000C9486000C94860080
:100010000C9486000C9486000C9486000C94860048
:100020000C9486000C9486000C9486000C94860038
:100030000C9486000C9486000C9486000C94860028
:100040000C94670B0C9486000C94D70B0C94B10B9A
:100050000C9486000C9486000C9486000C94860008
:100060000C94090C0C94860000000000240027006A
:100070002A0000000000250028002B0004040404CE
:100080000404040402020202020203030303030342
:10009000010204081020408001020408102001021F
:1000A00004081020000000080002010000030407FB
:1000B0000000000000000000280D1D1411241FBEC8
:1000C000CFEFD8E0DEBFCDBF11E0A0E0B1E0E0E4CB
:1000D000F4E302C005900D92AA3FB107D9F723E0DF
:1000E000AAEFB1E001C01D92A53DB207E1F710E013
:1000F000CDE5D0E004C02197FE010E94D918CC358F
:10010000D107C9F70E94970D0C94131A0C940000A4
:100110008230910538F0880F991F880F991F059735
:100120000197F1F7089590E0FC01EC55FF4F249101
:10013000FC01E057FF4F3491FC01E458FF4FE4917C
:10014000EE23C9F0222339F0233001F1A8F4213045
:1001500019F1223029F1F0E0EE0FFF1FEE58FF4FAA
:10016000A591B4918FB7F894EC91611126C03095A8
:100170003E233C938FBF08952730A9F02830C9F063
:10018000243049F7809180008F7D03C080918000EA
:100190008F7780938000DFCF84B58F7784BDDBCFEE
:1001A00084B58F7DFBCF8091B0008F778093B000B6
:1001B000D2CF8091B0008F7DF9CF3E2BDACFCF9395
:1001C000DF9390E0FC01E057FF4F249184589F4F4C
:1001D000FC0184918823D1F090E0880F991FFC01E5
:1001E000E859FF4FA591B491FC01EE58FF4FC5911E
:1001F000D49161110EC09FB7F8948C91E22FE095D5
:100200008E238C932881E223E8839FBFDF91CF91D7
:1002100008958FB7F894EC91E22BEC938FBFF6CF53
:100220003FB7F8948091550290915602A0915702E1
:10023000B091580226B5A89B05C02F3F19F0019632
:10024000A11DB11D3FBFBA2FA92F982F8827BC0130
:10025000CD01620F711D811D911D42E0660F771F58
:10026000881F991F4A95D1F708958F929F92AF9258
:10027000BF92CF92DF92EF92FF924B015C010E94FE
:1002800010016B017C010E9410016C197D098E091F
:100290009F09683E734081059105A8F321E0821A09
:1002A0009108A108B10888EEC80E83E0D81EE11CB1
:1002B000F11C81149104A104B10429F7FF90EF907F
:1002C000DF90CF90BF90AF909F908F90089508954A
:1002D0000895AF92BF92CF92DF92EF92FF920F9369
:1002E0001F93CF93DF936C017B018B01040F151FCC
:1002F000EB015E01AE18BF08C017D10759F0699134
:10030000D601ED91FC910190F081E02DC601099597
:10031000892B79F7C501DF91CF911F910F91FF9044
:10032000EF90DF90CF90BF90AF900895FC01538D78
:10033000448D252F30E0842F90E0821B930B5417BF
:1003400010F0CF96089501970895FC01918D828D4C
:10035000981761F0A28DAE0FBF2FB11D5D968C91E5
:10036000928D9F5F9F73928F90E008958FEF9FEF24
:100370000895FC01918D828D981731F0828DE80FE0
:10038000F11D858D90E008958FEF9FEF0895FC019A
:10039000918D228D892F90E0805C9F4F821B910967
:1003A0008F73992708958BEC92E00E94C70121E09A
:1003B000892B09F420E0822F089580E090E0892BBA
:1003C00029F00E94D30181110C9400000895FC01D2
:1003D000A48DA80FB92FB11DA35ABF4F2C91848DA6
:1003E00090E001968F739927848FA689B7892C9303
:1003F000A089B1898C91837080648C93938D848D56
:10040000981306C00288F389E02D80818F7D808358
:100410000895EF92FF920F931F93CF93DF93EC0118
:1004200081E0888F9B8D8C8D98131AC0E889F9899B
:10043000808185FF15C09FB7F894EE89FF8960839E
:10044000E889F98980818370806480839FBF81E01F
:1004500090E0DF91CF911F910F91FF90EF90089561
:10046000F62E0B8D10E00F5F1F4F0F731127E02E3C
:100470008C8D8E110CC00FB607FCFACFE889F98974
:10048000808185FFF5CFCE010E94E701F1CFEB8D92
:10049000EC0FFD2FF11DE35AFF4FF0829FB7F89448
:1004A0000B8FEA89FB8980818062CFCFCF93DF9366
:1004B000EC01888D8823B9F0AA89BB89E889F9897C
:1004C0008C9185FD03C0808186FD0DC00FB607FCB1
:1004D000F7CF8C9185FFF2CF808185FFEDCFCE01E4
:1004E0000E94E701E9CFDF91CF9108950895FC01C3
:1004F00083858F3F19F061E00C9493000895FC010F
:1005000080819181892B39F0A281B3819C911196D0
:100510008C919CBD8DBD83858F3F19F060E00C945C
:1005200093000895AF92BF92CF92DF92EF92FF9225
:100530000F931F93CF93DF93EC0188819981892BCF
:1005400089F06EBD0DB407FEFDCFBEB48B2DDF91DB
:10055000CF911F910F91FF90EF90DF90CF90BF90C0
:10056000AF9008958885998511E0892B09F010E8EE
:10057000AA24A394862F812309F0A12C062F2C8175
:100580003D814E815F8160E271EA87E090E00E94E8
:100590000217F22EB02EE12CC22ED12CFF2019F022
:1005A000C6010E9488008A85877F09F042C08D8538
:1005B0008F3F89F0902F912381E009F480E08A1524
:1005C00051F0EF85F8898F89992369F19081892B02
:1005D0008083AA24A394E989FA898081998D892B43
:1005E0008083FF2019F0C6010E9488008E858F3F0E
:1005F00039F0EB89FC898081988D892309F0E12A03
:10060000E989FA899081898D8095892380838E85F7
:100610008F3F09F0BE2C88859985892BB9F5110F7C
:100620001111BCCF93CF9081809589238083A12C19
:10063000D2CFE989FA898081998D892B8083FF2027
:1006400019F0C6010E9488008D858F3F49F0EF8523
:10065000F8898F89902F9123A9F09081892B80832D
:10066000E989FA899081898D8095892380838E8597
:100670008F3F69F2EB89FC898081988D892339F25B
:10068000E12AC5CF908180958923E9CF1695C8CFFF
:10069000CF92DF92EF92FF920F931F93CF93DF934E
:1006A0008C01EB016A0179010E947F026881C80117
:1006B0000E949202E601EC0CFD1C6FEFC8010E9443
:1006C00092028993CE15DF05C1F7C8010E94770217
:1006D00081E0DF91CF911F910F91FF90EF90DF901C
:1006E000CF90089520911B02260F3327331F21320C
:1006F0003105ECF42091A102FC0190E080E024306F
:1007000069F082E00895A0911B022191AC0145504F
:100710005E4FA40FB52FB11D2C930196861798F349
:1007200080911B02680F60931B0280E0089581E0B6
:1007300008951092A10281E08093A00210927B02A2
:1007400061E082E10E94930061E083E10E949300F6
:10075000E9EBF0E080818E7F808380818D7F8083D4
:1007600088E48093B80085E48093BC000895CF931B
:10077000DF9391E09093FA018823B9F0C091B8001B
:10078000D091BA008091BC008A7B8093BC0060E06D
:1007900082E10E94930060E083E10E9493000E9446
:1007A0009903D093BA00C093B800DF91CF91089518
:1007B0008F929F92AF92BF92CF92DF92EF92FF9271
:1007C0000F931F93CF93DF93D091CA02D13208F0D9
:1007D000D7C0182FC091C9020E9410016B017C0183
:1007E0008091A10281116BC082E08093A1021093DD
:1007F000A0028FEF80939F0210929E02D0939D02E1
:10080000A9EAB2E0EDE7F2E080E0D81391C01092DF
:100810007C0280917C02CC0FC82BC0937C0280911B
:100820007B02813009F088C010927B020E94100187
:100830006B017C0180917C028093BB008091A302BC
:100840009091A402A091A502B091A602892B8A2BB7
:100850008B2BA1F00E9410010091A3021091A40221
:100860002091A5023091A6026C197D098E099F097D
:10087000061717072807390708F442C08091BC0003
:1008800083FDD8CF85EC8093BC000E9410016B01E2
:100890007C018091A102823009F450C080919F02B6
:1008A0008F3F09F46FC080919F02803209F46CC0C1
:1008B00080919F02803309F469C084E026C0809152
:1008C000A3029091A402A091A502B091A602892B47
:1008D0008A2B8B2B09F484CF0E9410018090A302F5
:1008E0009090A402A090A502B090A6026C197D0978
:1008F0008E099F0986169706A806B90608F070CFDC
:100900008091A2020E94B70385E01092A802109283
:10091000CA021092A702DF91CF911F910F91FF9011
:10092000EF90DF90CF90BF90AF909F908F90089501
:100930009D9191938F5F69CF85EEA5CF8091A302A2
:100940009091A402A091A502B091A602892B8A2BB6
:100950008B2B09F49ECF0E9410010091A3021091ED
:10096000A4022091A5023091A6026C197D098E097E
:100970009F09061717072807390708F08ACFC0CF45
:1009800081E0C3CF80E0C1CF82E0BFCF83E0BDCFA5
:10099000CF93DF93EC018B818823A1F0888191E0D4
:1009A0009093A7028093C9021092A8021092CA02E3
:1009B00081E00E94D80391E0811190E0892FDF91BE
:1009C000CF91089510925A02109259021092A802E3
:1009D0001092CA020E94990387E691E09093420226
:1009E0008093410288E691E09093400280933F0219
:1009F00081E08B83CE010E94C804982F8111CECF55
:100A0000DDCF0895E0915A0280915902E81730F441
:100A1000F0E0E55AFD4F808190E008958FEF9FEF61
:100A2000089590915A02809159022FEF3FEF981745
:100A300048F4E92FF0E0E55AFD4F208130E09F5F58
:100A400090935A02C90108958091590290915A02D7
:100A5000891B990B0895CF92DF92EF92FF920F932B
:100A60001F93CF93DF937C01CB018A012091A702D2
:100A7000222389F0EB016B01C40ED51ECC15DD05D8
:100A800069F06991D701ED91FC910190F081E02D21
:100A9000C7010995F3CF642F0E947203C801DF914B
:100AA000CF911F910F91FF90EF90DF90CF9008951D
:100AB000CF93DF931F92CDB7DEB769832091A70252
:100AC0002223F9F02091CA02203258F021E030E0D0
:100AD000FC013383228390E080E00F90DF91CF917F
:100AE00008958091A802E82FF0E0E755FD4F998125
:100AF00090838F5F8093A8028093CA0281E090E088
:100B0000ECCF61E0CE0101960E947203F7CF90E036
:100B100080E008951F93CF93DF93DC011496ED914D
:100B2000FC91E417F50710F490E01FC0122FEA01C2
:100B3000FC0181819281208131E03093A7022093D2
:100B4000C9021092A8021092CA02DC01ED91FC9138
:100B50000280F381E02D0995C817D90729F7812F65
:100B60000E94D80391E08111DFCF892FDF91CF91CF
:100B70001F9108950F931F93CF93DF9300D0CDB7AC
:100B8000DEB76A83E0919603F0919703309789F07E
:100B9000898321E042E050E0BE016F5F7F4FCF01CB
:100BA0000E948A050F900F90DF91CF911F910F91B6
:100BB00008958F7789830091980310919903C80154
:100BC0000E947F026981C8010E9492026A81C80165
:100BD0000E949202C8010E947702E4CFECE8F3E0A1
:100BE00087837087618721E043E050E063E973E029
:100BF000808191810C948A052F923F924F925F924F
:100C00006F927F928F929F92AF92BF92CF92DF921C
:100C1000EF92FF920F931F93CF93DF935C011B0121
:100C20006A01F12CE12CD50114968D919C918601DD
:100C30000E191F098017910708F48C01F501D08166
:100C40000E9410012B013C018091A102811172C010
:100C5000C02F013208F0C0E2F1E0F093A10221E0E0
:100C6000C601801B910BE816F90608F420E02093DA
:100C7000A0028FEF80939F0210929E028C0F8093B0
:100C80009D02A1E0A0937C0280917C02DD0FD82B15
:100C9000D0937C0280917B02813009F090C0109249
:100CA0007B020E9410012B013C0180917C02809309
:100CB000BB008091A3029091A402A091A502B091E3
:100CC000A602892B8A2B8B2BA1F00E941001209168
:100CD000A3023091A4024091A5025091A60264198A
:100CE000750986099709261737074807590708F431
:100CF00042C08091BC0083FDD8CFB5ECB093BC005E
:100D00000E9410012B013C018091A102813009F465
:100D10005AC080919E028C1710F4C0919E02ADE7DC
:100D2000B2E0EBE5F2E080E08C1751F19D919193F8
:100D30008F5FFACF8091A3029091A402A091A502A7
:100D4000B091A602892B8A2B8B2B09F47DCF0E94B0
:100D500010012091A3023091A4024091A50250916C
:100D6000A6026419750986099709261737074807E7
:100D7000590708F069CF8091A2020E94B703C0E032
:100D800010925A02C0935902C017110609F057C0B9
:100D900041018E0C9F1CE401CE018819990980172E
:100DA000910798F5D50111968D919C91DC01ED91FB
:100DB000FC910284F385E02D09958993EDCFE5EE52
:100DC000E093BC009DCF8091A3029091A402A091DA
:100DD000A502B091A602892B8A2B8B2B09F494CF04
:100DE0000E9410012091A3023091A4024091A5021B
:100DF0005091A602641975098609970926173707C5
:100E00004807590708F080CFB6CFE00EF11EEC146A
:100E1000FD0408F408CF81E0DF91CF911F910F917D
:100E2000FF90EF90DF90CF90BF90AF909F908F900A
:100E30007F906F905F904F903F902F90089580E04B
:100E4000EBCFEF92FF920F931F93CF93DF93EC01C1
:100E50008A01790120E041E050E00E948A05882360
:100E600059F0A701B801CE01DF91CF911F910F91E9
:100E7000FF90EF900C94FC0580E0DF91CF911F91E3
:100E80000F91FF90EF900895CF93DF931F92CDB70E
:100E9000DEB7E0919603F0919703898321E030E07B
:100EA000AE014F5F5F4FBA01309741F0CF010E9412
:100EB000210789810F90DF91CF9108958091980348
:100EC000909199030E944803F4CFCF93DF9300D011
:100ED000CDB7DEB7E0919603F0919703898322E0C6
:100EE00030E0AE014F5F5F4FBA01309751F0CF0154
:100EF0000E94210789819A810F900F90DF91CF91F5
:100F0000089580919803909199030E944803F2CF2D
:100F1000CF93DF9300D01F92CDB7DEB7E091960359
:100F2000F0919703898323E030E0AE014F5F5F4F7C
:100F3000BA013097A9F0CF010E94210729816A8167
:100F400070E090E080E0982F872F762F6627822B25
:100F50002B81622B0F900F900F90DF91CF9108950E
:100F600080919803909199030E944803E7CF4F9294
:100F70005F926F927F928F929F92AF92BF92CF9229
:100F8000DF92EF92FF928AEF0E9488076115710548
:100F900020E88207910509F49BC06B017C0184E085
:100FA000F594E794D794C7948A95D1F74090AD0310
:100FB0005090AE03C701B60128E030E040E050E0B9
:100FC0000E942417712C612CD301C201880F991F34
:100FD000AA1FBB1F281B390B4A0B5B0BA091AF0349
:100FE000B091B0030E944E174B015C01C701B601DE
:100FF00020E130E040E050E00E942417CA01B9012E
:1010000064197509860997099B01AC010E94F216C3
:101010009B01AC017CE055954795379527957A95CE
:10102000D1F7A091B103B091B2030E944E172B01EA
:101030003C01C501B40120E038E040E050E00E94EE
:10104000241769017A01C301B20120E030E440E0D5
:1010500050E00E9424172C0D3D1D4E1D5F1D8091F8
:10106000A9039091AA03A091AB03B091AC03280F00
:10107000391F4A1F5B1F2093A5033093A60340939B
:10108000A7035093A803A5E0B0E00E94431760585F
:101090007F4F8F4F9F4F20E031E040E050E00E94B3
:1010A0002417CA01B9010E947D1520E030E048EC08
:1010B00052E40E94D414FF90EF90DF90CF90BF9045
:1010C000AF909F908F907F906F905F904F9008951A
:1010D00060E070E080EC9FE7EECFCF93DF93CCE849
:1010E000D3E08F8321E041E050E063E973E0888141
:1010F00099810E948A0542E050E063E973E08881AB
:1011000099810E94FC058F819885982789279827C7
:10111000DF91CF910895CF93DF93EC0160E08E8152
:101120000E94930061E08E810E94930060E08E81B6
:101130000E9493008BE891E00197F1F7DF91CF9146
:101140000895CF92DF92EF92FF920F931F93CF9368
:10115000DF936C017C0187E0E80EF11CD0E0C0E079
:10116000062F10E0B8010C2E02C0759567950A9401
:10117000E2F76170F70181917F010E94930021964F
:10118000C430D10579F7C601DF91CF911F910F913E
:10119000FF90EF90DF90CF900C948B08CF92DF926E
:1011A000EF92FF920F931F93CF93DF93EC01F62EF4
:1011B000642F8C810E9493008D818F3F19F060E035
:1011C0000E9493000F2D10E08F8584FF25C06E01D3
:1011D00087E0C80ED11CF12CE12CB8010E2C02C006
:1011E000759567950A94E2F76170F60181916F0138
:1011F0000E949300FFEFEF1AFF0A88E0E816F1045F
:1012000061F7CE01DF91CF911F910F91FF90EF9089
:10121000DF90CF900C948B08B80184E075956795AA
:101220008A95E1F7CE010E94A1086F2DCE01DF91D2
:10123000CF911F910F91FF90EF90DF90CF900C9482
:10124000A10840E0682F84E793E00C94CE08CF9388
:10125000DF93823029F49091830398609093830305
:10126000809387031092880380E48093890380E150
:1012700080938A0380E580938B0361E080917803FB
:101280000E94DF00809179038F3F19F061E00E9496
:10129000DF0061E080917A030E94DF00C4E7D3E0C1
:1012A0009E01245733408091830384FD0BC084E06A
:1012B00090E021962817390744F461E08E810E945E
:1012C000DF00EECF88E090E0F4CF8BE39DE0019764
:1012D000F1F760E0809178030E94930060E08091D4
:1012E0007A030E949300809179038F3F19F060E0A8
:1012F0000E9493008091830384FD39C063E084E7FA
:1013000093E00E94A108CBE4D6E4CE010197F1F767
:1013100063E084E793E00E94A1082197F1F763E07E
:1013200084E793E00E94A10883E592E00197F1F73A
:1013300062E084E793E00E94A108809183038062C9
:101340000E94210984E0809384038CE00E9421099B
:1013500081E00E9421098BE39FE10197F1F782E090
:101360008093850386E0DF91CF910C942109806200
:101370000E9421098BE496E40197F1F780918303A1
:1013800080620E94210983E592E00197F1F7809144
:10139000830380620E942109D0CF41E00E94CE08E1
:1013A00081E090E00895FB0101900020E9F731977A
:1013B000AF01461B570BDC01ED91FC910280F381DC
:1013C000E02D09948F929F92AF92BF92EF92FF927D
:1013D0000F931F93CF93DF93CDB7DEB7A1970FB6CF
:1013E000F894DEBF0FBECDBF7C01FA01CB0119A27C
:1013F000223008F42AE08E010F5D1F4F822E912CBF
:10140000B12CA12CBF01A50194010E940217F90182
:10141000CA016A300CF5605DD8016E938D01232BF3
:10142000242B252B79F790E080E0109721F0BD0167
:10143000C7010E94D309A1960FB6F894DEBF0FBE74
:10144000CDBFDF91CF911F910F91FF90EF90BF9093
:10145000AF909F908F900895695CDECFCF93DF931C
:10146000BC018BEC92E00E94D309EC0166E371E0D1
:101470008BEC92E00E94D3098C0F9D1FDF91CF91DE
:1014800008952F923F924F925F926F927F928F9228
:101490009F92AF92BF92CF92DF92EF92FF921F93F3
:1014A000CF93DF93EC016A017B01722EAB019601B1
:1014B000CB01B6010E94ED1669E371E0811126C0EF
:1014C00046015701E894B7F82FEF3FEF4FE75FE78A
:1014D000C501B4010E94ED1681110CC02FEF3FEF42
:1014E0004FE75FE7C501B4010E94CF146DE371E0DF
:1014F000181664F02FEF3FEF4FE75FE4C701B60126
:101500000E947B161816B4F461E471E0CE01DF91FD
:10151000CF911F91FF90EF90DF90CF90BF90AF9051
:101520009F908F907F906F905F904F903F902F9003
:101530000C94D3092FEF3FEF4FE75FECC701B601E3
:101540000E94CF1487FDE0CF20E030E0A901C70161
:10155000B6010E94CF14312C212C87FF0DC0E881E9
:10156000F9810190F081E02D6DE2CE0109951C0119
:10157000F7FAF094F7F8F09410E060E070E080E0A3
:101580009FE3711641F020E030E040E251E40E9418
:10159000D4141F5FF6CFA70196010E9463142B019C
:1015A0003C010E9446154B015C012AE0BC01A401EC
:1015B000CE010E94E2097C01E20CF31C1123E1F14F
:1015C000C501B4010E947B159B01AC01C301B201AE
:1015D0000E9462144B015C01E881F9810190F08165
:1015E000E02D6EE2CE010995E80EF91E115020F1B2
:1015F00020E030E040E251E4C501B4010E948016D1
:101600002B013C010E9446154B01B12CA12C2AE074
:10161000B501A401CE010E94E209E80EF91EC50140
:10162000B4010E947B159B01AC01C301B2010E9471
:1016300062144B015C01DACFC701DF91CF911F919A
:10164000FF90EF90DF90CF90BF90AF909F908F90E2
:101650007F906F905F904F903F902F90089585ED11
:101660008093BC008091A3029091A402A091A50256
:10167000B091A6020796A11DB11D23E0B695A795CE
:10168000979587952A95D1F72091BC0024FD03C03A
:101690001092A10208954091A3025091A40260917A
:1016A000A5027091A602452B462B472B69F30097A4
:1016B000A105B10541F02AE22A95F1F700C0019792
:1016C000A109B109E1CF8091A2020C94B7031F9246
:1016D0000F920FB60F9211242F933F938F939F93E6
:1016E000AF93BF938091510290915202A091530207
:1016F000B09154023091500223E0230F2D3758F55A
:101700000196A11DB11D2093500280935102909328
:101710005202A0935302B0935402809155029091CB
:101720005602A0915702B09158020196A11DB11D19
:101730008093550290935602A0935702B09358029B
:10174000BF91AF919F918F913F912F910F900FBEBD
:101750000F901F90189526E8230F0296A11DB11D2A
:10176000D2CF1F920F920FB60F9211242F933F9357
:101770004F935F936F937F938F939F93AF93BF9399
:10178000EF93FF938BEC92E00E94E701FF91EF91C2
:10179000BF91AF919F918F917F916F915F914F9189
:1017A0003F912F910F900FBE0F901F9018951F9291
:1017B0000F920FB60F9211242F938F939F93EF9355
:1017C000FF93E091DB02F091DC028081E091E10285
:1017D000F091E20282FD1BC090818091E4028F5F54
:1017E0008F732091E502821741F0E091E402F0E06E
:1017F000E553FD4F958F8093E402FF91EF919F9108
:101800008F912F910F900FBE0F901F901895808190
:10181000F4CF1F920F920FB60F9211242F933F9384
:101820004F935F936F937F938F939F93AF93BF93E8
:10183000EF93FF938091B900887F803609F44AC006
:10184000F0F5883209F4A7C018F5803109F49BC07F
:10185000B8F4882309F4F9C0883009F494C0FF91E2
:10186000EF91BF91AF919F918F917F916F915F9118
:101870004F913F912F910F900FBE0F901F90189591
:10188000883109F488C0803251F780939F0214C0D8
:10189000803409F49DC040F48033B9F38833F9F6FD
:1018A00080939F0285ECB0C0803509F485C08835EF
:1018B00009F496C0883499F60E942F0BD0CF88394E
:1018C00009F48CC038F5883729F050F4883611F0C7
:1018D000803729F683E08093A10210923D0257C021
:1018E000883809F47BC0803919F0803809F0B7CF07
:1018F00080913D02803208F071C0E0913D0281E0AC
:101900008E0F80933D028091BB00F0E0E35EFD4FBF
:1019100080833DC0803B39F0E0F4803A09F479C01F
:10192000883A09F09CCF84E08093A10210921C02B7
:1019300010921B02E0914102F091420209958091C0
:101940001B0281110FC081E080931B021092FB01EA
:1019500009C0803C09F4A6CF883C09F4A3CF883B9A
:1019600009F07DCFE0911C0281E08E0F80931C0274
:10197000F0E0E550FE4F80818093BB0090911C0207
:1019800080911B0229C080917C028093BB0085EC72
:101990008093BC0064CF90919E0280919D02981725
:1019A00058F5E0919E0281E08E0F80939E02F0E058
:1019B000E358FD4F8081E9CFE0919E0281E08E0FD8
:1019C00080939E028091BB00F0E0E358FD4F80833E
:1019D00090919E0280919D029817C8F285E8D8CF19
:1019E000E0919E0281E08E0F80939E028091BB0069
:1019F000F0E0E358FD4F80838091A00281115CCF1D
:101A000081E080937B0284EA8093BC001092A10263
:101A100026CF85EC8093BC001092A10280913D02FC
:101A2000803230F4E0913D02F0E0E35EFD4F108241
:101A300060913D0270E0E0913F02F09140028DE143
:101A400092E0099510923D020ACF10929F0234CF86
:101A5000EBECF2E01382128288EE93E0A0E0B0E0BB
:101A600084839583A683B7832AE031E03183208382
:101A700025EC30E03587248724EC30E03787268753
:101A800020EC30E0318B208B21EC30E0338B228B4B
:101A900022EC30E0358B248B26EC30E0378B268B24
:101AA000118E128E138E148EE8E6F3E013821282EA
:101AB00084839583A683B7838CE191E091838083AF
:101AC000E6E9F3E0118210821382128215821482F9
:101AD0001782168211861086138A148A158A168A2E
:101AE000ECE8F3E012821482138280E890E096839F
:101AF0008583E4E7F3E0138212828EE291E0918322
:101B000080838CE084838FEF85838BE0868385E000
:101B1000878384E0808783E0818782E082871386E1
:101B2000148615861686178681E00C942709CF93B4
:101B3000DF93CDB7DEB76B970FB6F894DEBF0FBE5D
:101B4000CDBF789484B5826084BD84B5816084BD46
:101B500085B5826085BD85B5816085BD80916E004B
:101B6000816080936E00109281008091810082607C
:101B700080938100809181008160809381008091B9
:101B800080008160809380008091B10084608093A8
:101B9000B1008091B00081608093B00080917A00A4
:101BA000846080937A0080917A00826080937A00CA
:101BB00080917A00816080937A0080917A008068B9
:101BC00080937A001092C100E091DB02F091DC0278
:101BD00082E08083E091D702F091D8021082E091F8
:101BE000D902F091DA0280E180831092E302E09161
:101BF000DF02F091E00286E08083E091DD02F09167
:101C0000DE02808180618083E091DD02F091DE025E
:101C1000808188608083E091DD02F091DE02808126
:101C200080688083E091DD02F091DE0280818F7D0B
:101C3000808382E00E94270965E471E084E793E0F5
:101C40000E94D309A0909803B0909903BA82A98208
:101C5000AB2809F049C080919603909197030097B3
:101C600011F00E948A1986E090E00E94EE189A8393
:101C7000898386E7A981BA818C9388E693E01296DE
:101C80009C938E93119713961C92139780E290E089
:101C900015969C938E931497B0939703A0939603F5
:101CA00010925A02109259021092A8021092CA027F
:101CB0000E94990387E691E090934202809341024B
:101CC00088E691E09093400280933F0281E0E981B1
:101CD000FA818383CF010E94C804811152C01092FF
:101CE0004B0282E791E05DC1A981BA811B968C917C
:101CF0008F3F49F061E00E94DF0061E0E981FA81F5
:101D000083850E949300A981BA818D919C91892B32
:101D100009F446C51FB7F89480913E02811127C08F
:101D2000E6E8F0E08491EAE9F0E09491E82FF0E051
:101D3000EE0FFF1FE859FF4FA591B491EC91E923F5
:101D400021F461E08AE00E94930061E08AE00E9451
:101D5000DF008CB580618CBD8CB580648CBD61E08A
:101D60008DE00E94DF0061E08BE00E94DF00809147
:101D70003E028F5F80933E021FBF81E0E981FA81BE
:101D8000838F80ED0E94440790E0B0E0A0E0809354
:101D9000A1039093A203A093A303B093A40380365E
:101DA0009105A105B10509F09ACF66EB80EE0E947E
:101DB000BA056AE070E080E090E00E94350183EFB0
:101DC0000E94440780FDF5CF88E80E946507909344
:101DD000AE038093AD038AE80E9465079093B00339
:101DE0008093AF038CE80E9465079093B2038093C1
:101DF000B1038EE80E9465079093B4038093B30308
:101E000080E90E9465079093B6038093B50382E949
:101E10000E9465079093B8038093B70384E90E94FA
:101E200065079093BA038093B90386E90E9465071A
:101E30009093BC038093BB0388E90E94650790934D
:101E4000BE038093BD038AE90E9465079093C00397
:101E50008093BF038CE90E9465079093C20380932F
:101E6000C1038EE90E9465079093C4038093C30366
:101E700081EA0E9444078093C50381EE0E946507B2
:101E80009093C7038093C60383EE0E944407809318
:101E9000C80384EE0E944407898385EE0E944407AC
:101EA000098110E10102900111248F70282B3093D9
:101EB000CA032093C90386EE0E944407898385EEF6
:101EC0000E944407398140E134029001112490E0DE
:101ED00004E0959587950A95E1F7822B932B9093D3
:101EE000CC038093CB0387EE0E9444078093CD03FD
:101EF0008DEE8093CF038091D0038F71806A8093A1
:101F0000D0038091CE03807C8F778093CE0360E0F6
:101F100084EF0E94BA056091D00362956695677060
:101F200082EF0E94BA058091CE03682F677050E25D
:101F3000659FB0011124282F269526952695277098
:101F400094E0299F90011124622B87FB882780F958
:101F5000682B85EF0E94BA058091CF03682F6770C8
:101F6000A0E26A9FB0011124282F26952695269578
:101F70002770B4E02B9F90011124622B82958695E7
:101F800086958370682B84EF0E94BA0564E670E042
:101F900080E090E00E94350181E080934B0282E571
:101FA00091E00E942E0A1092900310928F0386E017
:101FB00090E00E94EE189A83898388E4E981FA818F
:101FC000808388E693E092838183138280E290E0AD
:101FD00095838483F0938D03E0938C0310925A02CF
:101FE000109259021092A8021092CA020E949903FC
:101FF00087E691E0909342028093410288E691E067
:102000009093400280933F0281E0A981BA811396A8
:102010008C931397CD010E94C80484E991E00E943B
:102020002E0A60ED77E080E090E00E94350181E0CB
:102030000E9421098BE39FE10197F1F760918F03E3
:10204000709190038091910390919203682B792B6A
:10205000716C81E00E94EE0560E070E883E00E9410
:10206000EE0570E060E082E00E94EE0581E00E94F3
:102070006D0897FFFBCF80E00E946D0820918E03D2
:10208000022E02C0969587950A94E2F7222329F042
:102090008115B8E09B0708F0906FBC01990F880B81
:1020A000990B0E947D1526EA3BE944EC50E40E941E
:1020B000801620E03EEF4FEF56E40E94D414609368
:1020C0004C0270934D0280934E0290934F02809188
:1020D0004B02882309F49EC30E94B707609347020E
:1020E000709348028093490290934A020E94B70776
:1020F00087EF0E9488076D877E878F87988B611591
:1021000071058048910509F47CC38091A5039091E5
:10211000A603A091A703B091A8036C017D01FF0C59
:10212000CC08DC2C76019C01AD016C2D7C2D8C2D16
:102130009C2D345F41405109610971098109910960
:1021400029873A874B875C873B014C0159016A011B
:102150007B018C010E945617322E232E498B5A8BFD
:102160006B8B7C8B8D8B998F3091B6032091B5034F
:10217000932F990F990B492F592F692F792F892F59
:102180000E9456170CE00E948518290149835E8B36
:102190006F8B788F8B8F9A8F3091B8032091B70314
:1021A000932F990F990BA32CB22CC988DA88EB884E
:1021B000FC880D89198D492F592F692F792F892F67
:1021C0000E945617F22E032F142FB52FF62FE72F4C
:1021D000D82EE92EA0E00E94CD1884F421503F4F64
:1021E0004F4F5F4F6F4F7F4F8F4F9F4FF22E032FF9
:1021F000142FB52FF62FE72FD82EE92E2F2D302FA5
:10220000412F5B2F6F2F7E2F8D2D9E2D08E00E947A
:102210009E185201C980DE88EF88F88C0B8D1A8DCC
:102220000E94BB1870588F4F9F4FE091B303F091FD
:10223000B4035F01D12CC12CE12CF12C8701E9837F
:10224000BA82CB82DC82ED82FE820F831887C12C9A
:10225000D12CE12CF12C00E010E00E945617122F37
:102260003E8B4983B52FF62FE72FF82E092FA0E0DC
:102270000E94CD1884F421503109410951096E4F53
:102280007F4F8F4F9F4F122F3E8B4983B52FF62FD5
:10229000E72FF82E092F212F3E8949815B2F6F2FC1
:1022A0007E2F8F2D902F01E20E949E1829833E8B56
:1022B0004F8B588F6A8F472E8B8F592EA0E00E942C
:1022C000CD1809F4A3C23091BE032091BD03932F12
:1022D000990F990BA32CB22CC988DA88EB88FC885B
:1022E0000D89198D492F592F692F792F892F0E9418
:1022F00056171901498B5A8B6B8B7C8B8D8B998F61
:102300003091BC032091BB03932F990F990BA984A3
:10231000BA84CB84DC8473018401492F592F692F3F
:10232000792F892F0E94561701E10E9485185101CB
:10233000C988DA88EB88FC880D89198D0E94BB1842
:1023400059016A017B01382E192F8D859E85AF8535
:10235000B88924E0B595A795979587952A95D1F7E3
:1023600020E030E040E150E0281B390B4A0B5B0BCA
:10237000DA01C90139014A01990C6608762C43013A
:102380009C01AD01662D762D862D962D0FE10E94C4
:102390008518722E832E942E5987B62FA72FF82FCB
:1023A000E92F3091BA032091B903932F990F990B1C
:1023B000492F592F692F792F892F03E20E94851801
:1023C000032D0E94BB1859016A017B018C01272D46
:1023D000382D492D59856B2F7A2F8F2F9E2F0E94D4
:1023E000C418E5E3AE2EFCE0BF2EC12CD12CE12CAD
:1023F000F12C00E010E00E945617A980BE88CF881B
:10240000D88CEA8CF42C0B8D152D0E94B0172A8BDA
:10241000398B2A013B014C01F22E032F142FB52DCD
:10242000F62FE72DD82EE92CA0E00E94CD1884F4D9
:102430002150304E4F4F5F4F6F4F7F4F8F4F9F4F09
:10244000F22E032F142FB52FF62FE72FD82EE92EBB
:102450002F2D302F412F5B2F6F2F7E2F8D2D9E2DF7
:102460000DE00E949E1829873A874B875C876D870D
:102470007983382E292E3091C4032091C303932FE2
:10248000990F990BA984BA846A017B01032D122D3F
:10249000492F592F692F792F892F0E9456170E9493
:1024A0005617F22E032F142FB52FF62FE72FD82E05
:1024B000E92EA0E00E94CD1884F421503109410991
:1024C0005E4F6F4F7F4F8F4F9F4FF22E032F142F72
:1024D000B52FF62FE72FD82EE92E2F2D302F412F95
:1024E0005B2F6F2F7E2F8D2D9E2D09E10E949E1850
:1024F000AA88B9886201730184010E94BB1819017E
:1025000049875A876B877C878D8799833091C2036F
:102510002091C103932F990F990B492F592F692FA0
:10252000792F892F0E945617122F3A8B498BB52F7E
:10253000F62FE72FF82E092FA0E00E94CD1884F483
:1025400021503109484F5F4F6F4F7F4F8F4F9F4F43
:10255000122F3A8B498BB52FF62FE72FF82E092F24
:10256000212F3A8949895B2F6F2F7E2F8F2D902F36
:1025700003E10E949E1859016A017B018C019101BF
:1025800049855A856B857C858D8599810E94BB180C
:10259000122F39874983B52FF62FE72FF82E092FF1
:1025A000A0E00E94CD1884F421503F4F4F4F5F4F61
:1025B0006F4F7F4F8F4F9F4F122F39874983B52F12
:1025C000F62FE72FF82E092F212F398549815B2F10
:1025D0006F2F7E2F8F2D902F08E00E949E18A22F24
:1025E000F32F6A017B01E82F192F4090BF03509011
:1025F000C003052C000C6608770853014201BB0C90
:102600008808982C54019201A301682D782D882DFB
:10261000982D04E00E948518AA2EBF2E0E2F0E942E
:10262000BB180E94751520E030E040E85BE30E9493
:102630008016609343027093440280934502909306
:102640004602E1E0809187038111E0E0E195F0E04E
:10265000EC58FC4F848980680E94210968EB71E086
:1026600084E793E00E94D3094091470250914802C9
:102670006091490270914A0221E084E793E00E9450
:10268000410A6BEB71E084E793E00E94D30940912B
:10269000430250914402609145027091460220E04D
:1026A00084E793E00E94410A6EEB71E084E793E0D7
:1026B0000E94D309E0918703E23008F0BCC0E150EA
:1026C000F0E0EC58FC4F848980680E94210961EC9D
:1026D00071E084E793E00E94D30940914C0250914D
:1026E0004D0260914E0270914F0222E084E793E028
:1026F0000E94410A64EC71E084E793E00E94D309F0
:1027000069EC71E08BEC92E00E94D30940914702A2
:10271000509148026091490270914A0222E08BEC8C
:1027200092E00E94410A67ED71E08BEC92E00E941A
:10273000D309409143025091440260914502709147
:10274000460222E08BEC92E00E94410A68EE71E0C2
:102750008BEC92E00E94D30940914C0250914D02C3
:1027600060914E0270914F0222E08BEC92E00E9449
:10277000410A87EF91E00E942E0A68EE73E080E044
:1027800090E00E94350140E050E0452B09F456CC22
:102790000E94D301882309F451CC0E9400004ECC42
:1027A00061E0E981FA8184850E94DF00A981BA8114
:1027B0001A968C911A978B7FF9F460E01C968C9195
:1027C0000E949300A981BA811D968C918F3F49F098
:1027D00061E00E94DF0061E0E981FA8185850E9465
:1027E0009300A981BA811E968C918F3F09F4C5CAC6
:1027F00060E00E94DF00C1CA61E0E981FA8184855E
:10280000DFCF60E070E080EC9FE713CF60E070E026
:10281000CB010FCF1092470210924802109249024A
:1028200010924A0210924302109244021092450202
:102830001092460206CFE1E043CFCF93DF93C091E1
:102840009803D0919903209749F08A819B81009742
:1028500011F00E948A19CE010E948A198091960374
:1028600090919703009711F00E948A1980919A0322
:1028700090919B03009739F0DC01ED91FC9102806F
:10288000F381E02D099580919C0390919D03009721
:1028900039F0DC01ED91FC910280F381E02D099586
:1028A00080919E0390919F03009749F0DC01ED9188
:1028B000FC910280F381E02DDF91CF910994DF91AB
:1028C000CF9108955058BB27AA270E947A140C94E0
:1028D00041160E94331638F00E943A1620F039F45F
:1028E0009F3F19F426F40C9420160EF4E095E7FBB4
:1028F0000C941A16E92F0E94521658F3BA17620761
:1029000073078407950720F079F4A6F50C947416E4
:102910000EF4E0950B2EBA2FA02D0B01B9019001FA
:102920000C01CA01A0011124FF27591B99F0593F3E
:1029300050F4503E68F11A16F040A22F232F342F86
:102940004427585FF3CF469537952795A795F040D4
:102950005395C9F77EF41F16BA0B620B730B840BE9
:10296000BAF09150A1F0FF0FBB1F661F771F881FA1
:10297000C2F70EC0BA0F621F731F841F48F48795F9
:1029800077956795B795F7959E3F08F0B0CF9395EB
:10299000880F08F09927EE0F9795879508950E9464
:1029A000F61508F481E008950E94E8140C9441168D
:1029B0000E943A1658F00E94331640F029F45F3F07
:1029C00029F00C941A1651110C9475160C942016BB
:1029D0000E94521668F39923B1F3552391F3951B86
:1029E000550BBB27AA2762177307840738F09F5F30
:1029F0005F4F220F331F441FAA1FA9F335D00E2E9D
:102A00003AF0E0E832D091505040E695001CCAF709
:102A10002BD0FE2F29D0660F771F881FBB1F2617CC
:102A200037074807AB07B0E809F0BB0B802DBF01A3
:102A3000FF2793585F4F3AF09E3F510578F00C9472
:102A40001A160C9475165F3FE4F3983ED4F38695FE
:102A500077956795B795F7959F5FC9F7880F911D93
:102A60009695879597F90895E1E0660F771F881F7F
:102A7000BB1F621773078407BA0720F0621B730B32
:102A8000840BBA0BEE1F88F7E09508950E945A1642
:102A900088F09F5798F0B92F9927B751B0F0E1F01F
:102AA000660F771F881F991F1AF0BA95C9F714C0CF
:102AB000B13091F00E947416B1E008950C94741630
:102AC000672F782F8827B85F39F0B93FCCF3869508
:102AD00077956795B395D9F73EF490958095709565
:102AE00061957F4F8F4F9F4F089597FB16F40E947B
:102AF00023160C94B915E89409C097FB3EF4909501
:102B00008095709561957F4F8F4F9F4F9923A9F0C6
:102B1000F92F96E9BB279395F69587957795679555
:102B2000B795F111F8CFFAF4BB0F11F460FF1BC099
:102B30006F5F7F4F8F4F9F4F16C0882311F096E92C
:102B400011C0772321F09EE8872F762F05C06623DA
:102B500071F096E8862F70E060E02AF09A95660F93
:102B6000771F881FDAF7880F9695879597F908954C
:102B7000E894F92F96EBFF2381F012161306140642
:102B8000440B9395F69587957795679557954040B3
:102B9000FF23B9F71BC099270895882351F4985053
:102BA000D2F7872B762F652F542F432F322F20E01B
:102BB000B1F3121613061406440B88233AF09A95C3
:102BC000440F551F661F771F881FCAF755234AF405
:102BD000440F551F11F460FF04C06F5F7F4F8F4F8C
:102BE0009F4F880F9695879597F90895990F00083C
:102BF000550FAA0BE0E8FEEF16161706E807F907CF
:102C0000C0F012161306E407F50798F0621B730B69
:102C1000840B950B39F40A2661F0232B242B252BEA
:102C200021F408950A2609F4A140A6958FEF811D8D
:102C3000811D089597F99F6780E870E060E008952E
:102C40009FEF80EC089590958095709560955095D4
:102C50004095309521953F4F4F4F5F4F6F4F7F4FBE
:102C60008F4F9F4F089500240A94161617061806D2
:102C70000906089500240A94121613061406050680
:102C80000895092E0394000C11F4882352F0BB0F11
:102C900040F4BF2B11F460FF04C06F5F7F4F8F4F74
:102CA0009F4F089557FD9058440F551F59F05F3FAF
:102CB00071F04795880F97FB991F61F09F3F79F05E
:102CC00087950895121613061406551FF2CF4695E0
:102CD000F1DF08C0161617061806991FF1CF869562
:102CE0007105610508940895E894BB276627772746
:102CF000CB0197F908950E94F61508F48FEF089517
:102D00000E9493160C9441160E94331638F00E94CC
:102D10003A1620F0952311F00C941A160C942016F4
:102D200011240C9475160E94521670F3959FC1F3EE
:102D3000950F50E0551F629FF001729FBB27F00D69
:102D4000B11D639FAA27F00DB11DAA1F649F6627BE
:102D5000B00DA11D661F829F2227B00DA11D621F0D
:102D6000739FB00DA11D621F839FA00D611D221FC7
:102D7000749F3327A00D611D231F849F600D211DAB
:102D8000822F762F6A2F11249F5750409AF0F1F02E
:102D900088234AF0EE0FFF1FBB1F661F771F881F97
:102DA00091505040A9F79E3F510580F00C941A169F
:102DB0000C9475165F3FE4F3983ED4F386957795AF
:102DC0006795B795F795E7959F5FC1F7FE2B880F3D
:102DD000911D9695879597F908950E94F615880B91
:102DE000990B0895DB018F939F930E944317BF9126
:102DF000AF91A29F800D911DA39F900DB29F900D4A
:102E000011240895A1E21A2EAA1BBB1BFD010DC0BF
:102E1000AA1FBB1FEE1FFF1FA217B307E407F5078A
:102E200020F0A21BB30BE40BF50B661F771F881F66
:102E3000991F1A9469F760957095809590959B01FC
:102E4000AC01BD01CF010895052E97FB1EF400943F
:102E50000E943B1757FD07D00E94021707FC03D0C2
:102E60004EF40C943B1750954095309521953F4F6B
:102E70004F4F5F4F089590958095709561957F4F66
:102E80008F4F9F4F08950E94DF18A59F900DB49F0C
:102E9000900DA49F800D911D11240895B7FF0C94EF
:102EA00043170E944317821B930B0895DF93CF9320
:102EB0001F930F939A9DF02D219FF00D8B9DF00D88
:102EC0008A9DE02DF10D039FF00D029FE00DF11D95
:102ED0004E9DE00DF11D5E9DF00D4F9DF00D7F9319
:102EE0006F93BF92AF925F934F93D5010E94DF180B
:102EF0008B01AC01D7010E94DF18EB01E80FF91F2D
:102F0000D6010E94A5172F913F91D6010E94DF188C
:102F1000C60FD71FE81FF91FAF91BF910E94A517D9
:102F20002F913F910E94DF18C60FD71FE81FF91F8E
:102F3000D6010E94DF18E60FF71F9801BE01CF01EE
:102F40000F911F91CF91DF9108950E94DF18460FD6
:102F5000571FC81FD91F08F431960895689401C0FF
:102F6000E894F92FF12B12F00C94E217A0E0B0E0F6
:102F7000ECEBF7E10C945418092E059422F40E940E
:102F80003E18112392F4F0E80F26FFEFE094F0943E
:102F900000951095B094C094D094A194BF0ACF0A24
:102FA000DF0AEF0AFF0A0F0B1F0B0E94ED1707FC49
:102FB0000E943E18CDB7DEB7ECE00C947018689410
:102FC00001C0E8948F929F92CF93DF930E94ED17F8
:102FD000DF91CF919F908F90089588249924F401D8
:102FE000E401B0E49F93AA279A158B049C04ED0595
:102FF000FE05CF05D007A10798F4AD2FDC2FCF2F0A
:10300000FE2FE92D982C892E982F872F762F652F4C
:10301000542F432F322F2227B85031F7BF9127C0AA
:103020001B2EBF91BB27220F331F441F551F661F46
:10303000771F881F991F881C991CEE1FFF1FCC1F2C
:10304000DD1FAA1FBB1F8A149B04EC05FD05CE05DE
:10305000DF05A007B10748F08A189B08EC09FD09B5
:10306000CE09DF09A00BB10B21601A94E1F62EF412
:103070009401AF01BE01CD01000C089560957095DB
:103080008095909530954095509521953F4F4F4FA5
:103090005F4F6F4F7F4F8F4F9F4F08952F923F92FB
:1030A0004F925F926F927F928F929F92AF92BF9258
:1030B000CF92DF92EF92FF920F931F93CF93DF9304
:1030C000CDB7DEB7CA1BDB0B0FB6F894DEBF0FBE61
:1030D000CDBF09942A88398848885F846E847D84AE
:1030E0008C849B84AA84B984C884DF80EE80FD80B0
:1030F0000C811B81AA81B981CE0FD11D0FB6F89426
:10310000DEBF0FBECDBFED010895002E083090F058
:10311000982F872F762F652F542F432F322F22275A
:103120000850F4CF220F331F441F551F661F771F0F
:10313000881F991F0A95B2F7002D089597FD1094E6
:10314000002E083098F00850232F342F452F562F8B
:10315000672F782F892F912DF4CF15949795879508
:103160007795679557954795379527950A95AAF7C7
:103170001124002D08952A0D3B1D4C1D5D1D6E1D53
:103180007F1D801F911F08952A193B094C095D0975
:103190006E097F09800B910B08950024A7FD009410
:1031A0002A1730054005500560057005800590051B
:1031B0000895EE0FFF1F0590F491E02D0994A29F52
:1031C000B001B39FC001A39F700D811D1124911DFB
:1031D000B29F700D811D1124911D08950F931F93AF
:1031E000CF93DF938230910510F482E090E0E0917C
:1031F000D303F091D40330E020E0B0E0A0E03097BA
:1032000099F42115310509F44AC0281B390B2430E3
:103210003105D8F58A819B816115710589F1FB0122
:1032200093838283FE0111C0408151810281138109
:1032300048175907E0F04817590799F4109761F0BB
:1032400012960C93129713961C933296CF01DF912E
:10325000CF911F910F9108950093D3031093D4033E
:10326000F4CF2115310551F04217530738F0A90169
:10327000DB019A01BD01DF01F801C1CFEF01F9CFF8
:103280009093D4038093D303CDCFFE01E20FF31FBD
:10329000819391932250310939832883D7CF20918C
:1032A000D1033091D203232B41F4209102013091BC
:1032B00003013093D2032093D10320910001309178
:1032C00001012115310541F42DB73EB740910401AC
:1032D00050910501241B350BE091D103F091D203ED
:1032E000E217F307A0F42E1B3F0B2817390778F0DD
:1032F000AC014E5F5F4F2417350748F04E0F5F1F3C
:103300005093D2034093D103819391939FCFF0E0E8
:10331000E0E09CCFCF93DF930097E9F0FC01329778
:1033200013821282A091D303B091D403ED0130E057
:1033300020E01097A1F420813181820F931F20910A
:10334000D1033091D2032817390709F061C0F093F7
:10335000D203E093D103DF91CF910895EA01CE1714
:10336000DF07E8F54A815B819E0141155105B1F700
:10337000E901FB83EA8349915991C40FD51FEC17EA
:10338000FD0761F4808191810296840F951FE90108
:1033900099838883828193819B838A83F0E0E0E034
:1033A00012968D919C9113970097B9F52D913C91B0
:1033B0001197CD010296820F931F2091D103309176
:1033C000D2032817390739F6309751F51092D403F4
:1033D0001092D303B093D203A093D103BCCFD38375
:1033E000C28340815181840F951FC817D90761F4AA
:1033F0004E5F5F4F88819981480F591F51834083E9
:103400008A819B81938382832115310509F0B0CF96
:10341000F093D403E093D3039ECFFD01DC01C0CF32
:1034200013821282D7CF10E0CDE5D0E004C0FE01B8
:103430000E94D9182196CE35D107C9F7F894FFCF4D
:103440000000D50380000000000009026901960118
:103450005602C701A501B9010000000058052B055F
:103460008705010524051105020500000000CD09AE
:103470006901870576020D0A006E616E00696E664D
:10348000006F766600496E696369616E646F2E2E07
:103490002E00424D4532383020636F6E6563746193
:1034A000646F20636F7272656374616D656E7465BD
:1034B0002E00416476657274656E6369613A2042DC
:1034C0004D45323830206E6F20636F6E65637461D6
:1034D000646F2E004144533131313520696E696388
:1034E00069616C697A61646F20636F72726563747D
:1034F000616D656E74652E00543A00432C00506176
:1035000000563A00562020200054656D70657261A7
:10351000747572613A200020C2B0432C205072654D
:103520007369C3B36E3A20002050612C20566F6C33
:0A35300074616A653A20002056001D
:107E0000112484B714BE81FFF0D085E080938100F7
:107E100082E08093C00088E18093C10086E0809377
:107E2000C20080E18093C4008EE0C9D0259A86E02C
:107E300020E33CEF91E0309385002093840096BBD3
:107E4000B09BFECF1D9AA8958150A9F7CC24DD24C4
:107E500088248394B5E0AB2EA1E19A2EF3E0BF2EE7
:107E6000A2D0813461F49FD0082FAFD0023811F036
:107E7000013811F484E001C083E08DD089C08234E0
:107E800011F484E103C0853419F485E0A6D080C0E4
:107E9000853579F488D0E82EFF2485D0082F10E0AE
:107EA000102F00270E291F29000F111F8ED06801E7
:107EB0006FC0863521F484E090D080E0DECF843638
:107EC00009F040C070D06FD0082F6DD080E0C81688
:107ED00080E7D80618F4F601B7BEE895C0E0D1E017
:107EE00062D089930C17E1F7F0E0CF16F0E7DF06D8
:107EF00018F0F601B7BEE89568D007B600FCFDCFD4
:107F0000A601A0E0B1E02C9130E011968C91119780
:107F100090E0982F8827822B932B1296FA010C0160
:107F200087BEE89511244E5F5F4FF1E0A038BF0790
:107F300051F7F601A7BEE89507B600FCFDCF97BE46
:107F4000E89526C08437B1F42ED02DD0F82E2BD052
:107F50003CD0F601EF2C8F010F5F1F4F84911BD097
:107F6000EA94F801C1F70894C11CD11CFA94CF0C13
:107F7000D11C0EC0853739F428D08EE10CD085E9AC
:107F80000AD08FE07ACF813511F488E018D01DD067
:107F900080E101D065CF982F8091C00085FFFCCF94
:107FA0009093C60008958091C00087FFFCCF809118
:107FB000C00084FD01C0A8958091C6000895E0E648
:107FC000F0E098E1908380830895EDDF803219F02E
:107FD00088E0F5DFFFCF84E1DECF1F93182FE3DFCA
:107FE0001150E9F7F2DF1F91089580E0E8DFEE27F6
:047FF000FF270994CA
:027FFE00040479
:00000001FF
