:020000040000FA
:100000000C945E000C9486000C9486000C94860080
:100010000C9486000C9486000C9486000C94860048
:100020000C9486000C9486000C9486000C94860038
:100030000C9486000C9486000C9486000C94860028
:100040000C94DE0F0C9486000C944E100C94281027
:100050000C9486000C9486000C9486000C94860008
:100060000C9480100C9486000000000025002800ED
:100070002B0000000008000201000003040700003C
:1000800000000000000000000000240027002A00FB
:10009000010204081020408001020408102001021F
:1000A00004081020040404040404040402020202EC
:1000B00002020303030303039F11261311241FBE2F
:1000C000CFEFD8E0DEBFCDBF12E0A0E0B1E0E8EDB9
:1000D000F1E302C005900D92A031B107D9F723E0FA
:1000E000A0E1B2E001C01D92A83FB207E1F710E025
:1000F000CDE5D0E004C02197FE010E94A517CC35C4
:10010000D107C9F70E94E1110C94DF180C9400008C
:100110000895089590E0FC01EE58FF4F2491FC01F2
:10012000E057FF4F3491FC01EC55FF4FE491EE2373
:10013000C9F0222339F0233001F1A8F4213019F15C
:10014000223029F1F0E0EE0FFF1FE859FF4FA59193
:10015000B4918FB7F894EC91611126C030953E238D
:100160003C938FBF08952730A9F02830C9F0243080
:1001700049F7809180008F7D03C0809180008F7748
:1001800080938000DFCF84B58F7784BDDBCF84B5CB
:100190008F7DFBCF8091B0008F778093B000D2CF5E
:1001A0008091B0008F7DF9CF3E2BDACFCF93DF93D4
:1001B00090E0FC01E057FF4F24918C559F4FFC01CC
:1001C00084918823D1F090E0880F991FFC01EA57B1
:1001D000FF4FA591B491FC01E859FF4FC591D4910F
:1001E00061110EC09FB7F8948C91E22FE0958E2399
:1001F0008C932881E223E8839FBFDF91CF910895FC
:100200008FB7F894EC91E22BEC938FBFF6CF82304E
:10021000910538F0880F991F880F991F059701974E
:10022000F1F708953FB7F8948091590290915A02DE
:10023000A0915B02B0915C0226B5A89B05C02F3F40
:1002400019F00196A11DB11D3FBFBA2FA92F982FFC
:100250008827BC01CD01620F711D811D911D42E0F7
:10026000660F771F881F991F4A95D1F708958F92BF
:100270009F92AF92BF92CF92DF92EF92FF924B018B
:100280005C010E9412016B017C010E9412016C1939
:100290007D098E099F09683E734081059105A8F389
:1002A00021E0821A9108A108B10888EEC80E83E007
:1002B000D81EE11CF11C81149104A104B10429F79A
:1002C000FF90EF90DF90CF90BF90AF909F908F9076
:1002D0000895AF92BF92CF92DF92EF92FF920F9369
:1002E0001F93CF93DF936C017B018B01040F151FCC
:1002F000EB015E01AE18BF08C017D10759F0699134
:10030000D601ED91FC910190F081E02DC601099597
:10031000892B79F7C501DF91CF911F910F91FF9044
:10032000EF90DF90CF90BF90AF900895FC01538D78
:10033000448D252F30E0842F90E0821B930B5417BF
:1003400010F0CF96089501970895FC01918D828D4C
:10035000981761F0A28DAE0FBF2FB11D5D968C91E5
:10036000928D9F5F9F73928F90E008958FEF9FEF24
:100370000895FC01918D828D981731F0828DE80FE0
:10038000F11D858D90E008958FEF9FEF0895FC019A
:10039000918D228D892F90E0805C9F4F821B910967
:1003A0008F739927089584ED92E00E94C70121E0A0
:1003B000892B09F420E0822F089580E090E0892BBA
:1003C00029F00E94D30181110C9400000895FC01D2
:1003D000A48DA80FB92FB11DA35ABF4F2C91848DA6
:1003E00090E001968F739927848FA689B7892C9303
:1003F000A089B1898C91837080648C93938D848D56
:10040000981306C00288F389E02D80818F7D808358
:100410000895EF92FF920F931F93CF93DF93EC0118
:1004200081E0888F9B8D8C8D98131AC0E889F9899B
:10043000808185FF15C09FB7F894EE89FF8960839E
:10044000E889F98980818370806480839FBF81E01F
:1004500090E0DF91CF911F910F91FF90EF90089561
:10046000F62E0B8D10E00F5F1F4F0F731127E02E3C
:100470008C8D8E110CC00FB607FCFACFE889F98974
:10048000808185FFF5CFCE010E94E701F1CFEB8D92
:10049000EC0FFD2FF11DE35AFF4FF0829FB7F89448
:1004A0000B8FEA89FB8980818062CFCFCF93DF9366
:1004B000EC01888D8823B9F0AA89BB89E889F9897C
:1004C0008C9185FD03C0808186FD0DC00FB607FCB1
:1004D000F7CF8C9185FFF2CF808185FFEDCFCE01E4
:1004E0000E94E701E9CFDF91CF9108952091310279
:1004F000260F3327331F21323105ECF42091AA0255
:10050000FC0190E080E0243069F082E00895A09141
:1005100031022191AC014F5E5D4FA40FB52FB11D8B
:100520002C930196861798F380913102680F60939F
:10053000310280E0089581E008951092AA0281E0DE
:100540008093A9021092840261E082E10E948A00F5
:1005500061E083E10E948A00E9EBF0E080818E7F18
:10056000808380818D7F808388E48093B80085E4D8
:100570008093BC000895CF93DF9391E09093100295
:100580008823B9F0C091B800D091BA008091BC0026
:100590008A7B8093BC0060E082E10E948A0060E078
:1005A00083E10E948A000E949D02D093BA00C0930A
:1005B000B800DF91CF9108958F929F92AF92BF9232
:1005C000CF92DF92EF92FF920F931F93CF93DF931F
:1005D000D091D302D13208F0D7C0182FC091D202E7
:1005E0000E9412016B017C018091AA0281116BC0F3
:1005F00082E08093AA021093A9028FEF8093A80251
:100600001092A702D093A602A2EBB2E0E6E8F2E0D5
:1006100080E0D81391C01092850280918502CC0FA2
:10062000C82BC093850280918402813009F088C074
:10063000109284020E9412016B017C01809185025C
:100640008093BB008091AC029091AD02A091AE026C
:10065000B091AF02892B8A2B8B2BA1F00E94120143
:100660000091AC021091AD022091AE023091AF0228
:100670006C197D098E099F09061717072807390786
:1006800008F442C08091BC0083FDD8CF85EC8093F4
:10069000BC000E9412016B017C018091AA02823091
:1006A00009F450C08091A8028F3F09F46FC0809177
:1006B000A802803209F46CC08091A802803309F44A
:1006C00069C084E026C08091AC029091AD02A091F7
:1006D000AE02B091AF02892B8A2B8B2B09F484CF09
:1006E0000E9412018090AC029090AD02A090AE02E8
:1006F000B090AF026C197D098E099F098616970686
:10070000A806B90608F070CF8091AB020E94BB0228
:1007100085E01092B1021092D3021092B002DF91E4
:10072000CF911F910F91FF90EF90DF90CF90BF90EE
:10073000AF909F908F9008959D9191938F5F69CF17
:1007400085EEA5CF8091AC029091AD02A091AE0252
:10075000B091AF02892B8A2B8B2B09F49ECF0E947C
:1007600012010091AC021091AD022091AE023091C5
:10077000AF026C197D098E099F0906171707280714
:10078000390708F08ACFC0CF81E0C3CF80E0C1CF66
:1007900082E0BFCF83E0BDCF0895E09163028091F6
:1007A0006202E81730F4F0E0EC59FD4F808190E0F0
:1007B00008958FEF9FEF08959091630280916202F8
:1007C0002FEF3FEF981748F4E92FF0E0EC59FD4F79
:1007D000208130E09F5F90936302C901089580916A
:1007E000620290916302891B990B0895CF92DF9268
:1007F000EF92FF920F931F93CF93DF937C01CB0176
:100800008A012091B002222389F0EB016B01C40E12
:10081000D51ECC15DD0569F06991D701ED91FC91EC
:100820000190F081E02DC7010995F3CF642F0E945C
:100830007602C801DF91CF911F910F91FF90EF9049
:10084000DF90CF900895CF93DF931F92CDB7DEB79F
:1008500069832091B0022223F9F02091D302203243
:1008600058F021E030E0FC013383228390E080E007
:100870000F90DF91CF9108958091B102E82FF0E0C1
:10088000EE54FD4F998190838F5F8093B1028093E6
:10089000D30281E090E0ECCF61E0CE0101960E94AE
:1008A0007602F7CF90E080E00895FC0183858F3FCA
:1008B00019F061E00C948A000895FC018081918117
:1008C000892B39F0A281B3819C9111968C919CBDAA
:1008D0008DBD83858F3F19F060E00C948A000895E8
:1008E000AF92BF92CF92DF92EF92FF920F931F933E
:1008F000CF93DF93EC0188819981892B89F06EBDBC
:100900000DB407FEFDCFBEB48B2DDF91CF911F91AB
:100910000F91FF90EF90DF90CF90BF90AF90089530
:100920008885998511E0892B09F010E8AA24A39401
:10093000862F812309F0A12C062F2C813D814E8129
:100940005F8160E271EA87E090E00E94CE15F22EAE
:10095000B02EE12CC22ED12CFF2019F0C6010E942E
:1009600007018A85877F09F042C08D858F3F89F016
:10097000902F912381E009F480E08A1551F0EF85F2
:10098000F8898F89992369F19081892B8083AA2422
:10099000A394E989FA898081998D892B8083FF202E
:1009A00019F0C6010E9407018E858F3F39F0EB894F
:1009B000FC898081988D892309F0E12AE989FA89E7
:1009C0009081898D8095892380838E858F3F09F062
:1009D000BE2C88859985892BB9F5110F1111BCCFD3
:1009E00093CF9081809589238083A12CD2CFE989F0
:1009F000FA898081998D892B8083FF2019F0C601A7
:100A00000E9407018D858F3F49F0EF85F8898F8916
:100A1000902F9123A9F09081892B8083E989FA890D
:100A20009081898D8095892380838E858F3F69F29F
:100A3000EB89FC898081988D892339F2E12AC5CF21
:100A4000908180958923E9CF1695C8CFCF92DF9208
:100A5000EF92FF920F931F93CF93DF938C01EB01E3
:100A60006A0179010E945D046881C8010E947004D6
:100A7000E601EC0CFD1C6FEFC8010E947004899325
:100A8000CE15DF05C1F7C8010E94550481E0DF9152
:100A9000CF911F910F91FF90EF90DF90CF9008952D
:100AA0001F93CF93DF93EA01122FDC0111968D91F2
:100AB0009C91DC01ED91FC910280F381E02D099580
:100AC000C817D90729F4812F0E94DC0291E0811117
:100AD00090E0892FDF91CF911F910895CF93DF93FD
:100AE000EC018B818823A1F0888191E09093B00282
:100AF0008093D2021092B1021092D30281E00E9440
:100B0000DC0291E0811190E0892FDF91CF9108956F
:100B100010926302109262021092B1021092D302FC
:100B20000E949D0288E890E090935F0280935E02AD
:100B300089E890E0909361028093600281E08B836A
:100B4000CE010E946E05982F8111CECFDDCF0F937D
:100B50001F93CF93DF9300D0CDB7DEB74A83DC017C
:100B6000ED91FC913097F9F069838481958102972A
:100B700098F0808191E09093B0028093D20210921D
:100B8000B1021092D30221E042E050E0BE016F5F5B
:100B90007F4FCF010E9450050F900F90DF91CF91B2
:100BA0001F910F9108956F776983FC010281138172
:100BB000C8010E945D046981C8010E9470046A81B5
:100BC000C8010E947004C8010E945504E5CF2F920D
:100BD0003F924F925F926F927F928F929F92AF92CD
:100BE000BF92CF92DF92EF92FF920F931F93CF931A
:100BF000DF93DC011496ED91FC911597EF2B09F42E
:100C000025C169012A01EC01888191E09093B0022D
:100C10008093D2021092B1021092D30220E041E000
:100C200050E0CD010E945005782E882309F40EC1B2
:100C3000F12CE12C332433948C819D8186010E1993
:100C40001F098017910708F48C0128800E94120167
:100C50004B015C018091AA02811173C0602EB0E249
:100C6000B01710F480E2682E3092AA0221E0C6018B
:100C7000801B910BE816F90608F420E02093A902E6
:100C8000EFEFE093A8021092A7028FEF860D8093FA
:100C9000A6023092850280918502220C282A209299
:100CA000850280918402813009F090C01092840204
:100CB0000E9412014B015C01809185028093BB0070
:100CC0008091AC029091AD02A091AE02B091AF02C2
:100CD000892B8A2B8B2BA1F00E9412012091AC0250
:100CE0003091AD024091AE025091AF02681979097E
:100CF0008A099B09261737074807590708F442C095
:100D00008091BC0083FDD8CFF5ECF093BC000E942D
:100D100012014B015C018091AA02813009F45AC092
:100D20008091A702861510F46090A702A6E8B2E0B1
:100D3000E4E6F2E080E0861551F19D9191938F5F9A
:100D4000FACF8091AC029091AD02A091AE02B09129
:100D5000AF02892B8A2B8B2B09F47CCF0E941201C6
:100D60002091AC023091AD024091AE025091AF02A1
:100D7000681979098A099B0926173707480759070F
:100D800008F068CF8091AB020E94BB02612C1092E8
:100D90006302609262026016110609F057C04201B8
:100DA0008E0C9F1C5401C501881999098017910761
:100DB00098F589819A81DC01ED91FC910284F3859B
:100DC000E02D0995F50181935F01EDCF85EE8093CC
:100DD000BC009DCF8091AC029091AD02A091AE027B
:100DE000B091AF02892B8A2B8B2B09F494CF0E94F0
:100DF00012012091AC023091AD024091AE025091AF
:100E0000AF02681979098A099B092617370748072D
:100E1000590708F080CFB6CFE00EF11EEC14FD04A8
:100E200008F40ACF872DDF91CF911F910F91FF908A
:100E3000EF90DF90CF90BF90AF909F908F907F907A
:100E40006F905F904F903F902F900895712CEACF54
:100E5000CF93DF9300D01F92CDB7DEB7FC01808126
:100E60009181698323E030E0AE014F5F5F4FBA01AB
:100E70000097A1F00E94E70529816A8170E090E067
:100E800080E0982F872F762F6627822B2B81622B6D
:100E90000F900F900F90DF91CF91089582819381F1
:100EA0000E942605E9CF4F925F926F927F928F92B8
:100EB0009F92AF92BF92CF92DF92EF92FF92CF9329
:100EC000DF93EC016AEF0E9428076115710520E8A5
:100ED0008207910509F48FC06B017C0184E0F594D1
:100EE000E794D794C7948A95D1F74F88588CC70157
:100EF000B60128E030E040E050E00E94F015712C8F
:100F0000612CD301C201880F991FAA1FBB1F281B88
:100F1000390B4A0B5B0BA98DBA8D0E941A164B0137
:100F20005C01C701B60120E130E040E050E00E94E2
:100F3000F015CA01B90164197509860997099B0161
:100F4000AC010E94BE159B01AC017CE05595479514
:100F5000379527957A95D1F7AB8DBC8D0E941A16DF
:100F60002B013C01C501B40120E038E040E050E035
:100F70000E94F01569017A01C301B20120E030E45A
:100F800040E050E00E94F0152C0D3D1D4E1D5F1DF0
:100F90008B899C89AD89BE89280F391F4A1F5B1F29
:100FA0002F87388B498B5A8BA5E0B0E00E940F1633
:100FB00060587F4F8F4F9F4F20E031E040E050E07E
:100FC0000E94F015CA01B9010E94491420E030E0E6
:100FD00048EC52E40E94A013DF91CF91FF90EF9074
:100FE000DF90CF90BF90AF909F908F907F906F9049
:100FF0005F904F90089560E070E080EC9FE7ECCF49
:101000002F923F924F925F926F927F928F929F9218
:10101000AF92BF92CF92DF92EF92FF920F931F9306
:10102000CF93DF93CDB7DEB76D970FB6F894DEBFE1
:101030000FBECDBF1C010E94530767EFC1010E9484
:1010400028076F87788B898B9A8B6115710580488B
:10105000910509F4B0C2F10187859089A189B2890F
:101060006C017D01FF0CCC08DC2C76019C01AD01EC
:101070006C2D7C2D8C2D9C2D345F414051096109D4
:1010800071098109910929873A874B875C873B0160
:101090004C0159016A017B018C010E942216422EEB
:1010A0003D874E875B8B6C8B7D8B8E8B9B8FD101AD
:1010B00090963C9190975F962C91932F990F990B56
:1010C000492F592F692F792F892F0E9422160CE062
:1010D0000E9451172C8F3D8F49835F8B688F798FCA
:1010E000582E9A8FF10132A121A1932F990F990BBC
:1010F000A42CBD84CE84DB88EC88FD880E891B8DF2
:10110000492F592F692F792F892F0E942216F22EED
:10111000032F142FB52FF62FE72FD82EE92EA0E09E
:101120000E94991784F421503F4F4F4F5F4F6F4FEC
:101130007F4F8F4F9F4FF22E032F142FB52FF62F77
:10114000E72FD82EE92E2F2D302F412F5B2F6F2F19
:101150007E2F8D2D9E2D08E00E946A17AC8CBD8CD1
:10116000C980DF88E88CF98C052D1A8D0E948717BD
:1011700070588F4F9F4FD1015D96ED91FC915F01AB
:10118000D12CC12CE12CF12C8701E983BA82CB82CE
:10119000DC82ED82FE820F831887C12CD12CE12CDA
:1011A000F12C00E010E00E942216122F3F8B4983A1
:1011B000B52FF62FE72FF82E092FA0E00E949917E0
:1011C00084F421503109410951096E4F7F4F8F4FEF
:1011D0009F4F122F3F8B4983B52FF62FE72FF82E05
:1011E000092F212F3F8949815B2F6F2F7E2F8F2D54
:1011F000902F01E20E946A172D8F532E49835F8B37
:10120000688F798F8A8F9C8FA0E00E94991709F4CC
:10121000D7C1D10198963C91989797962C91932F8E
:10122000990F990BA42CBD84CE84DB88EC88FD88B3
:101230000E891B8D492F592F692F792F892F0E94D5
:1012400022162D873E87442E5B8B6C8B7D8B8E8B7D
:101250009B8FF10136A125A1932F990F990BA9849A
:10126000BA84CB84DC8473018401492F592F692F00
:10127000792F892F0E94221601E10E945117AD8417
:10128000BE84C42CDB88EC88FD880E891B8D0E94EF
:10129000871759016A017B01482E192F4F855889FC
:1012A00069897A8934E075956795579547953A9598
:1012B000D1F780E090E0A0E1B0E0841B950BA60B95
:1012C000B70B3C014D01990C6608762C43019C013B
:1012D000AD01662D762D862D962D0FE10E945117BA
:1012E000722E832E942E652EB62FA72F8A879B876A
:1012F000F10134A123A1932F990F990B492F592F55
:10130000692F792F892F03E20E945117042D0E9423
:10131000871759016A017B018C01272D382D492D32
:10132000562D6B2F7A2F8A859B850E949017E5E3B7
:10133000AE2EFCE0BF2EC12CD12CE12CF12C00E014
:1013400010E00E942216AD8CB52CC980DF88E88C95
:10135000F98C0A8D1C8D0E947C162C8B3B8B2A01EC
:101360003B014C01F22E032F142FB52DF62FE72D44
:10137000D82EE92CA0E00E94991784F42150304E19
:101380004F4F5F4F6F4F7F4F8F4F9F4FF22E032F67
:10139000142FB52FF62FE72FD82EE92E2F2D302F13
:1013A000412F5B2F6F2F7E2F8D2D9E2D0DE00E94E4
:1013B0006A1729873A874B875C876F8779838D8780
:1013C0009E87D1019E963C919E979D962C91932F3E
:1013D000990F990BA984BA846A017B01082F1E8595
:1013E000492F592F692F792F892F0E9422160E9489
:1013F0002216F22E032F142FB52FF62FE72FD82EFB
:10140000E92EA0E00E94991784F421503109410986
:101410005E4F6F4F7F4F8F4F9F4FF22E032F142F32
:10142000B52FF62FE72FD82EE92E2F2D302F412F55
:101430005B2F6F2F7E2F8D2D9E2D09E10E946A1745
:10144000AC88BB886201730184010E9487172987D9
:101450003A874B875C876F8779838D879E87F101F9
:1014600034A523A5932F990F990B492F592F692F35
:10147000792F892F0E942216122F3C8B4B8BB52F70
:10148000F62FE72FF82E092FA0E00E94991784F479
:1014900021503109484F5F4F6F4F7F4F8F4F9F4F04
:1014A000122F3C8B4B8BB52FF62FE72FF82E092FE1
:1014B000212F3C894B895B2F6F2F7E2F8F2D902FF3
:1014C00003E10E946A1759016A017B018C01298599
:1014D0003A854B855C856F8579818D859E850E94D7
:1014E0008717122F39874983B52FF62FE72FF82E4C
:1014F000092FA0E00E94991784F421503F4F4F4FCD
:101500005F4F6F4F7F4F8F4F9F4F122F3987498308
:10151000B52FF62FE72FF82E092F212F3985498176
:101520005B2F6F2F7E2F8F2D902F08E00E946A1760
:101530002983F32F6A017B01E82F192FD101999696
:101540008D919C91092E000CAA0BBB0B4C015D01E7
:10155000BB0C8808982C54019C01AD01682D782D96
:10156000882D982D04E00E945117A980BF2E0E2FC0
:101570000E9487170E94411420E030E040E85BE3BE
:101580000E944C156D960FB6F894DEBF0FBECDBF0E
:10159000DF91CF911F910F91FF90EF90DF90CF904F
:1015A000BF90AF909F908F907F906F905F904F9083
:1015B0003F902F90089560E070E080EC9FE7E2CFCD
:1015C00060E070E0CB01DECFCF93DF9300D0CDB7EA
:1015D000DEB7FC0180819181698322E030E0AE01B9
:1015E0004F5F5F4FBA01009761F00E94E705898164
:1015F0009A819827892798270F900F90DF91CF9194
:101600000895828193810E942605F1CF4F925F92C7
:101610006F927F928F929F92AF92BF92CF92DF9202
:10162000EF92FF92CF93DF9300D000D000D0CDB7E0
:10163000DEB79E838D830E9453076DEF8D819E815F
:101640000E94E40AB0E0A0E0811520E89207A1051D
:10165000B10509F4E3C0ED81FE8187849088A188FB
:10166000B288FCE29F1AF1E0AF0AB1086C017D017B
:101670003EE0CC0CDD1CEE1CFF1C3A95D1F7ED8151
:10168000FE8183A994A9092E000CAA0BBB0B44E18F
:10169000880F991FAA1FBB1F4A95D1F7C81AD90AEC
:1016A000EA0AFB0AA5A9B6A9A50194010E941A1687
:1016B000C61AD70AE80AF90AC701B601705C8F4F4B
:1016C0009F4F412C50E8552E612C712CA3019201A3
:1016D0000E94F01529833A834B835C83ED81FE8160
:1016E000A2A9B0E0A50194010E940F1620E038E005
:1016F00040E050E00E94F01569017A01F0E8DF0E49
:10170000E11CF11CED81FE81A7A90A2E000CBB0B88
:10171000A50194010E941A16812CE4E09E2EA12CB2
:10172000B12CA50194010E94F015CA01B901A701CD
:1017300096010E94BE15A50194010E94F015405E1D
:101740005F4FED81FE81A0A9B1A90E941A16705EBB
:101750008F4F9F4F20E030E440E050E00E94F015B2
:1017600069817A818B819C810E94BE156B017C010D
:10177000A30192010E94F015CA01B9010E94BE1591
:101780009B01AC01F7E05595479537952795FA955C
:10179000D1F7ED81FE81A7A5B0E00E940F1620E1F0
:1017A00030E040E050E00E94F015C21AD30AE40A8B
:1017B000F50AF7FE03C0C12CD12C7601C701B60192
:1017C000613071058105F9E19F0724F060E070E068
:1017D00080E099E12CE095958795779567952A9516
:1017E000D1F70E94471420E030E040E85AE30E941D
:1017F0004C1526960FB6F894DEBF0FBECDBFDF9115
:10180000CF91FF90EF90DF90CF90BF90AF909F90DF
:101810008F907F906F905F904F90089560E070E0A0
:1018200080EC9FE7E6CF0E94E40A98278927982753
:101830000895CF93DF931F92CDB7DEB7FC0180816F
:101840009181698321E030E0AE014F5F5F4FBA01C3
:10185000009739F00E94E70589810F90DF91CF91C1
:101860000895828193810E942605F6CFFF920F93FF
:101870001F93CF93DF938C01F62EFC01118210820F
:10188000158214821782168211861086138A148A92
:10189000158A168A8CE190E00E94BA17EC01FB864B
:1018A0008FEF8E878D878C8788EB93E09983888371
:1018B0001B8E82E090E00E94BA1721E5FC01208394
:1018C00011829B838A8380E492E4AFE0B0E08C8352
:1018D0009D83AE83BF8381E090E0998788871A86D5
:1018E000F801D383C283DF91CF911F910F91FF90B5
:1018F0000895FC0101900020E9F73197AF01481BE2
:10190000590BBC0184ED92E00C9469018F929F9277
:10191000AF92BF920F931F93CF93DF93CDB7DEB7F4
:10192000A1970FB6F894DEBF0FBECDBF19A242300B
:1019300008F44AE08E010F5D1F4F842E912CB12CCC
:10194000A12CA50194010E94CE15E62FB901CA0170
:10195000EA30F4F4E05DD801EE938D01232B242BC3
:10196000252B79F790E080E0109719F0CD010E94C7
:10197000790CA1960FB6F894DEBF0FBECDBFDF91F4
:10198000CF911F910F91BF90AF909F908F9008952E
:10199000E95CE1CFCF93DF930E94790CEC018AE2FE
:1019A00091E00E94790C8C0F9D1FDF91CF910895DB
:1019B0004F925F926F927F928F929F92AF92BF925F
:1019C000CF92DF92EF92FF920F931F93CF936B0111
:1019D0007C01742EAC019B010E94B915882399F0FB
:1019E0008DE291E0CF911F910F91FF90EF90DF90EA
:1019F000CF90BF90AF909F908F907F906F905F90AF
:101A00004F900C94790C46015701E894B7F82FEFEA
:101A10003FEF4FE75FE7C501B4010E94B91581119F
:101A20000DC02FEF3FEF4FE75FE7C501B4010E9404
:101A30009B1318161CF481E391E0D4CF2FEF3FEFF6
:101A40004FE75FE4C701B6010E94471518161CF462
:101A500085E391E0C7CF2FEF3FEF4FE75FECC70182
:101A6000B6010E949B1387FDF3CF20E030E0A9016F
:101A7000C701B6010E949B1310E000E087FF0AC077
:101A80006DE284ED92E00E9409028C01F7FAF09475
:101A9000F7F8F094C0E060E070E080E09FE37C162F
:101AA00041F020E030E040E251E40E94A013CF5F1B
:101AB000F6CFA70196010E942F132B013C010E9433
:101AC00012144B015C014AE00E94860C7C01E00E7E
:101AD000F11ECC23C1F1C501B4010E9447149B0142
:101AE000AC01C301B2010E942E134B015C016EE2F6
:101AF00084ED92E00E940902E80EF91EC15018F12F
:101B000020E030E040E251E4C501B4010E944C15F0
:101B10002B013C010E9412144B01B12CA12C4AE074
:101B2000C501B4010E94860CE80EF91EC501B4017E
:101B30000E9447149B01AC01C301B2010E942E1305
:101B40004B015C01DBCFC701CF911F910F91FF903B
:101B5000EF90DF90CF90BF90AF909F908F907F904D
:101B60006F905F904F900895FF920F931F93CF93C4
:101B7000DF93EC010A811B810115110509F03EC0BC
:101B800088819981009711F00E94561886E090E0B4
:101B90000E94BA178C0187E7F801808381E793E000
:101BA00092838183138280E290E0958384831983FA
:101BB000088310926302109262021092B102109296
:101BC000D3020E949D0288E890E090935F02809388
:101BD0005E0289E890E0909361028093600281E068
:101BE000F8018383C8010E946E0581114FC080E017
:101BF000DF91CF911F910F91FF900895F801838598
:101C00008F3F41F061E00E94D60061E0F8018385DA
:101C10000E948A00F80180819181892B09F42FC1EB
:101C2000FFB6F89480915D02811127C0EEEAF0E0E2
:101C30008491EAE9F0E09491E82FF0E0EE0FFF1FC5
:101C4000EA57FF4FA591B491EC91E92321F461E0AB
:101C50008AE00E948A0061E08AE00E94D6008CB58A
:101C600080618CBD8CB580648CBD61E08DE00E948C
:101C7000D60061E08BE00E94D60080915D028F5F0C
:101C800080935D02FFBE81E0F801838F60EDCE019D
:101C90000E94190C90E0B0E0A0E08B879C87AD8794
:101CA000BE8780369105A105B10509F0A0CF46EBAE
:101CB00060EECE010E94A7056AE070E080E090E04F
:101CC0000E94370163EFCE010E94190C80FDF4CF12
:101CD00068E8CE010E94130C988F8F8B6AE8CE01C2
:101CE0000E94130C9A8F898F6CE8CE010E94130C0E
:101CF0009C8F8B8F6EE8CE010E94130C9E8F8D8F70
:101D000060E9CE010E94130C98A38F8F62E9CE0187
:101D10000E94130C9AA389A364E9CE010E94130CBC
:101D20009CA38BA366E9CE010E94130C9EA38DA3F6
:101D300068E9CE010E94130C98A78FA36AE9CE012F
:101D40000E94130C9AA789A76CE9CE010E94130C7C
:101D50009CA78BA76EE9CE010E94130C9EA78DA7AE
:101D600061EACE010E94190C8FA761EECE010E949C
:101D7000130C99AB88AB63EECE010E94190C8AABB1
:101D800064EECE010E94190C182F65EECE010E9460
:101D9000190CF0E11F02900111248F70282B3CAB2D
:101DA0002BAB66EECE010E94190C182F65EECE010A
:101DB0000E94190C90E119029001112490E044E076
:101DC000959587954A95E1F7822B932B9EAB8DAB2A
:101DD00067EECE010E94190C8FAB8DEE89AF8AADF4
:101DE0008F71806A8AAF88AD807C8F7788AF40E042
:101DF00064EFCE010E94A7054AAD42954695477013
:101E000062EFCE010E94A70588AD482F4770E0E23F
:101E10004E9FA0011124282F2695269526952770E0
:101E2000F4E02F9F90011124422B87FB882780F933
:101E3000482B65EFCE010E94A70589AD482F47705A
:101E400090E2499FA0011124282F269526952695DA
:101E50002770E4E02E9F90011124422B82958695F5
:101E600086958370482B64EFCE010E94A70564E637
:101E700070E080E090E00E94370181E0B9CE61E03F
:101E800084850E94D600F80182858B7F60E009F08E
:101E900061E084850E948A00F80185858F3F41F0CA
:101EA00061E00E94D60061E0F80185850E948A0009
:101EB000F80186858F3F09F4E6CE60E00E94D600E7
:101EC000E2CE0F931F93CF93DF93EC010A811B8126
:101ED0000115110559F0D80112968D919C9100972A
:101EE00011F00E945618C8010E94561888819981E5
:101EF000009711F00E9456188C819D81009739F04F
:101F0000DC01ED91FC910280F381E02D09958E8139
:101F10009F81009739F0DC01ED91FC910280F38103
:101F2000E02D099588859985009759F0DC01ED91A0
:101F3000FC910280F381E02DDF91CF911F910F91F1
:101F40000994DF91CF911F910F91089585ED8093B2
:101F5000BC008091AC029091AD02A091AE02B09114
:101F6000AF020796A11DB11D23E0B695A7959795E1
:101F700087952A95D1F72091BC0024FD03C01092CB
:101F8000AA0208954091AC025091AD026091AE0258
:101F90007091AF02452B462B472B69F30097A105A3
:101FA000B10541F02AE22A95F1F700C00197A10995
:101FB000B109E1CF8091AB020C94BB021F920F924A
:101FC0000FB60F9211242F933F938F939F93AF934C
:101FD000BF938091550290915602A0915702B09103
:101FE00058023091540223E0230F2D3758F5019603
:101FF000A11DB11D20935402809355029093560267
:10200000A0935702B09358028091590290915A02BE
:10201000A0915B02B0915C020196A11DB11D80935D
:10202000590290935A02A0935B02B0935C02BF9155
:10203000AF919F918F913F912F910F900FBE0F9075
:102040001F90189526E8230F0296A11DB11DD2CF2F
:102050001F920F920FB60F9211242F933F934F931D
:102060005F936F937F938F939F93AF93BF93EF9300
:10207000FF9384ED92E00E94E701FF91EF91BF9101
:10208000AF919F918F917F916F915F914F913F9110
:102090002F910F900FBE0F901F9018951F920F92C7
:1020A0000FB60F9211242F938F939F93EF93FF936B
:1020B000E091E402F091E5028081E091EA02F09182
:1020C000EB0282FD1BC090818091ED028F5F8F73C8
:1020D0002091EE02821741F0E091ED02F0E0EC5227
:1020E000FD4F958F8093ED02FF91EF919F918F911E
:1020F0002F910F900FBE0F901F9018958081F4CFF5
:102100001F920F920FB60F9211242F933F934F936C
:102110005F936F937F938F939F93AF93BF93EF934F
:10212000FF938091B900887F803609F44AC0F0F5AA
:10213000883209F4A7C018F5803109F49BC0B8F4BF
:10214000882309F4F9C0883009F494C0FF91EF9115
:10215000BF91AF919F918F917F916F915F914F91BF
:102160003F912F910F900FBE0F901F9018958831BF
:1021700009F488C0803251F78093A80214C08034DB
:1021800009F49DC040F48033B9F38833F9F68093A5
:10219000A80285ECB0C0803509F485C0883509F403
:1021A00096C0883499F60E94A60FD0CF883909F4DA
:1021B0008CC038F5883729F050F4883611F0803714
:1021C00029F683E08093AA021092530257C0883800
:1021D00009F47BC0803919F0803809F0B7CF8091BD
:1021E0005302803208F071C0E091530281E08E0FFB
:1021F000809353028091BB00F0E0ED5CFD4F808343
:102200003DC0803B39F0E0F4803A09F479C0883A67
:1022100009F09CCF84E08093AA02109232021092BF
:102220003102E0915E02F0915F02099580913102E6
:1022300081110FC081E0809331021092110209C018
:10224000803C09F4A6CF883C09F4A3CF883B09F071
:102250007DCFE091320281E08E0F80933202F0E078
:10226000EF5EFD4F80818093BB00909132028091A0
:10227000310229C0809185028093BB0085EC809358
:10228000BC0064CF9091A7028091A602981758F5E0
:10229000E091A70281E08E0F8093A702F0E0EA5759
:1022A000FD4F8081E9CFE091A70281E08E0F8093FE
:1022B000A7028091BB00F0E0EA57FD4F8083909128
:1022C000A7028091A6029817C8F285E8D8CFE091BE
:1022D000A70281E08E0F8093A7028091BB00F0E0FF
:1022E000EA57FD4F80838091A90281115CCF81E084
:1022F0008093840284EA8093BC001092AA0226CFC5
:1023000085EC8093BC001092AA0280915302803227
:1023100030F4E0915302F0E0ED5CFD4F10826091EB
:10232000530270E0E0916002F091610283E392E079
:102330000995109253020ACF1092A80234CFE4ED0F
:10234000F2E01382128288EE93E0A0E0B0E0848392
:102350009583A683B7832AE031E03183208325EC7F
:1023600030E03587248724EC30E03787268720EC5F
:1023700030E0318B208B21EC30E0338B228B22EC50
:1023800030E0358B248B26EC30E0378B268B118E9A
:10239000128E138E148EE1E7F3E01382128284838F
:1023A0009583A683B7838CE191E0918380836AE073
:1023B00089EB93E00E94360C69E08DE793E00C9482
:1023C000360CCF93DF93CDB7DEB72C970FB6F894CA
:1023D000DEBF0FBECDBF789484B5826084BD84B566
:1023E000816084BD85B5826085BD85B5816085BD10
:1023F00080916E00816080936E00109281008091C8
:10240000810082608093810080918100816080934F
:102410008100809180008160809380008091B10074
:1024200084608093B1008091B00081608093B0009F
:1024300080917A00846080937A0080917A00826033
:1024400080937A0080917A00816080937A008091F5
:102450007A00806880937A001092C100E091E402D3
:10246000F091E50282E08083E091E002F091E102E8
:102470001082E091E202F091E3028FEC80831092EF
:10248000EC02E091E802F091E90286E08083E091BD
:10249000E602F091E702808180618083E091E602AC
:1024A000F091E702808188608083E091E602F091FC
:1024B000E702808180688083E091E602F091E70284
:1024C00080818F7D808361E08AE00E94D60061E098
:1024D00089E00E94D60089EB93E00E94B40D81113F
:1024E00005C089E391E00E94CA0CFFCF8DE793E01D
:1024F0000E94B40D811105C083E691E00E94CA0CD0
:10250000FFCF8CE891E00E94CA0C60E08AE00E9454
:102510008A0089EB93E00E9453072B013C0189EB71
:1025200093E00E94060B4B015C0189EB93E00E9453
:1025300000086B017C0161E08AE00E948A0060E093
:1025400089E00E948A008DE793E00E945307698327
:102550007A838B839C838DE793E00E94060B6D83C7
:102560007E838F8398878DE793E00E9400086987B8
:102570007A878B879C8761E089E00E948A0082ECE1
:1025800091E00E94790C42E0C301B2010E94D80C94
:1025900085ED91E00E94790C42E0C501B4010E94F2
:1025A000D80C85EE91E00E94790C20E030E048ECF8
:1025B00052E4C701B6010E94A01342E00E94D80C69
:1025C00083EF91E00E94CA0C88EF91E00E94790CA1
:1025D00042E069817A818B819C810E94D80C85EDD3
:1025E00091E00E94790C42E06D817E818F81988517
:1025F0000E94D80C85EE91E00E94790C20E030E03A
:1026000048EC52E469857A858B859C850E94A013ED
:1026100042E00E94D80C83EF91E00E94CA0C8BE04C
:1026200092E00E94CA0C60ED77E080E090E00E94AA
:10263000370180E090E0892B09F467CF0E94D30135
:10264000882309F462CF0E9400005FCF8DE793E0FA
:102650000E94610F89EB93E00C94610F5058BB27E7
:10266000AA270E9446130C940D150E94FF1438F0FF
:102670000E94061520F039F49F3F19F426F40C94BB
:10268000EC140EF4E095E7FB0C94E614E92F0E949D
:102690001E1558F3BA17620773078407950720F0D1
:1026A00079F4A6F50C9440150EF4E0950B2EBA2F94
:1026B000A02D0B01B90190010C01CA01A001112448
:1026C000FF27591B99F0593F50F4503E68F11A16F4
:1026D000F040A22F232F342F4427585FF3CF469585
:1026E00037952795A795F0405395C9F77EF41F16A7
:1026F000BA0B620B730B840BBAF09150A1F0FF0F71
:10270000BB1F661F771F881FC2F70EC0BA0F621F5C
:10271000731F841F48F4879577956795B795F7954C
:102720009E3F08F0B0CF9395880F08F09927EE0FE1
:102730009795879508950E94C21408F481E0089542
:102740000E94B4130C940D150E94061558F00E94B7
:10275000FF1440F029F45F3F29F00C94E614511166
:102760000C9441150C94EC140E941E1568F39923E7
:10277000B1F3552391F3951B550BBB27AA2762177D
:102780007307840738F09F5F5F4F220F331F441F8A
:10279000AA1FA9F335D00E2E3AF0E0E832D09150BE
:1027A0005040E695001CCAF72BD0FE2F29D0660FAB
:1027B000771F881FBB1F261737074807AB07B0E8EE
:1027C00009F0BB0B802DBF01FF2793585F4F3AF0F4
:1027D0009E3F510578F00C94E6140C9441155F3F30
:1027E000E4F3983ED4F3869577956795B795F7957A
:1027F0009F5FC9F7880F911D9695879597F9089562
:10280000E1E0660F771F881FBB1F621773078407FD
:10281000BA0720F0621B730B840BBA0BEE1F88F70C
:10282000E09508950E94261588F09F5798F0B92FDB
:102830009927B751B0F0E1F0660F771F881F991FF5
:102840001AF0BA95C9F714C0B13091F00E94401542
:10285000B1E008950C944015672F782F8827B85F52
:1028600039F0B93FCCF3869577956795B395D9F74D
:102870003EF490958095709561957F4F8F4F9F4F57
:10288000089597FB16F40E94EF140C948514E894B5
:1028900009C097FB3EF490958095709561957F4FA8
:1028A0008F4F9F4F9923A9F0F92F96E9BB27939556
:1028B000F695879577956795B795F111F8CFFAF466
:1028C000BB0F11F460FF1BC06F5F7F4F8F4F9F4F97
:1028D00016C0882311F096E911C0772321F09EE8F5
:1028E000872F762F05C0662371F096E8862F70E05B
:1028F00060E02AF09A95660F771F881FDAF7880F35
:102900009695879597F90895E894F92F96EBFF230C
:1029100081F0121613061406440B9395F6958795CD
:102920007795679557954040FF23B9F71BC09927C6
:102930000895882351F49850D2F7872B762F652F6E
:10294000542F432F322F20E0B1F312161306140632
:10295000440B88233AF09A95440F551F661F771F42
:10296000881FCAF755234AF4440F551F11F460FF1E
:1029700004C06F5F7F4F8F4F9F4F880F969587954D
:1029800097F90895990F0008550FAA0BE0E8FEEF9C
:1029900016161706E807F907C0F012161306E40723
:1029A000F50798F0621B730B840B950B39F40A261C
:1029B00061F0232B242B252B21F408950A2609F4FA
:1029C000A140A6958FEF811D811D089597F99F67FE
:1029D00080E870E060E008959FEF80EC08959095A6
:1029E00080957095609550954095309521953F4F15
:1029F0004F4F5F4F6F4F7F4F8F4F9F4F0895002472
:102A00000A941616170618060906089500240A9453
:102A100012161306140605060895092E0394000CD9
:102A200011F4882352F0BB0F40F4BF2B11F460FF68
:102A300004C06F5F7F4F8F4F9F4F089557FD905891
:102A4000440F551F59F05F3F71F04795880F97FB72
:102A5000991F61F09F3F79F087950895121613062C
:102A60001406551FF2CF4695F1DF08C0161617065B
:102A70001806991FF1CF8695710561050894089590
:102A8000E894BB2766277727CB0197F908950E9422
:102A9000C21408F48FEF08950E945F150C940D1571
:102AA0000E94FF1438F00E94061520F0952311F0C3
:102AB0000C94E6140C94EC1411240C9441150E940F
:102AC0001E1570F3959FC1F3950F50E0551F629F3F
:102AD000F001729FBB27F00DB11D639FAA27F00D77
:102AE000B11DAA1F649F6627B00DA11D661F829F9E
:102AF0002227B00DA11D621F739FB00DA11D621F83
:102B0000839FA00D611D221F749F3327A00D611D9F
:102B1000231F849F600D211D822F762F6A2F112481
:102B20009F5750409AF0F1F088234AF0EE0FFF1FB4
:102B3000BB1F661F771F881F91505040A9F79E3F0B
:102B4000510580F00C94E6140C9441155F3FE4F3BA
:102B5000983ED4F3869577956795B795F795E79561
:102B60009F5FC1F7FE2B880F911D9695879597F96A
:102B700008950E94C214880B990B0895DB018F936E
:102B80009F930E940F16BF91AF91A29F800D911D40
:102B9000A39F900DB29F900D11240895A1E21A2ECB
:102BA000AA1BBB1BFD010DC0AA1FBB1FEE1FFF1FF1
:102BB000A217B307E407F50720F0A21BB30BE40B41
:102BC000F50B661F771F881F991F1A9469F7609588
:102BD0007095809590959B01AC01BD01CF01089542
:102BE000052E97FB1EF400940E94071657FD07D090
:102BF0000E94CE1507FC03D04EF40C940716509596
:102C00004095309521953F4F4F4F5F4F08959095D8
:102C10008095709561957F4F8F4F9F4F08950E94CB
:102C2000AB17A59F900DB49F900DA49F800D911D93
:102C300011240895B7FF0C940F160E940F16821BE3
:102C4000930B0895DF93CF931F930F939A9DF02DCD
:102C5000219FF00D8B9DF00D8A9DE02DF10D039FBE
:102C6000F00D029FE00DF11D4E9DE00DF11D5E9DEA
:102C7000F00D4F9DF00D7F936F93BF92AF925F93D6
:102C80004F93D5010E94AB178B01AC01D7010E9475
:102C9000AB17EB01E80FF91FD6010E9471162F91B7
:102CA0003F91D6010E94AB17C60FD71FE81FF91F2F
:102CB000AF91BF910E9471162F913F910E94AB1767
:102CC000C60FD71FE81FF91FD6010E94AB17E60FEA
:102CD000F71F9801BE01CF010F911F91CF91DF9196
:102CE00008950E94AB17460F571FC81FD91F08F43D
:102CF00031960895689401C0E894F92FF12B12F0F1
:102D00000C94AE16A0E0B0E0E8E8F6E10C942017D1
:102D1000092E059422F40E940A17112392F4F0E878
:102D20000F26FFEFE094F09400951095B094C094B6
:102D3000D094A194BF0ACF0ADF0AEF0AFF0A0F0B53
:102D40001F0B0E94B91607FC0E940A17CDB7DEB709
:102D5000ECE00C943C17689401C0E8948F929F9229
:102D6000CF93DF930E94B916DF91CF919F908F9000
:102D7000089588249924F401E401B0E49F93AA27DC
:102D80009A158B049C04ED05FE05CF05D007A1071D
:102D900098F4AD2FDC2FCF2FFE2FE92D982C892E04
:102DA000982F872F762F652F542F432F322F2227CE
:102DB000B85031F7BF9127C01B2EBF91BB27220F00
:102DC000331F441F551F661F771F881F991F881CBC
:102DD000991CEE1FFF1FCC1FDD1FAA1FBB1F8A14EB
:102DE0009B04EC05FD05CE05DF05A007B10748F003
:102DF0008A189B08EC09FD09CE09DF09A00BB10B6D
:102E000021601A94E1F62EF49401AF01BE01CD01C8
:102E1000000C08956095709580959095309540953B
:102E2000509521953F4F4F4F5F4F6F4F7F4F8F4FC3
:102E30009F4F08952F923F924F925F926F927F9291
:102E40008F929F92AF92BF92CF92DF92EF92FF92BA
:102E50000F931F93CF93DF93CDB7DEB7CA1BDB0B66
:102E60000FB6F894DEBF0FBECDBF09942A8839880B
:102E700048885F846E847D848C849B84AA84B98412
:102E8000C884DF80EE80FD800C811B81AA81B9811E
:102E9000CE0FD11D0FB6F894DEBF0FBECDBFED0132
:102EA0000895002E083090F0982F872F762F652FE9
:102EB000542F432F322F22270850F4CF220F331FD5
:102EC000441F551F661F771F881F991F0A95B2F769
:102ED000002D089597FD1094002E083098F00850AA
:102EE000232F342F452F562F672F782F892F912D81
:102EF000F4CF15949795879577956795579547954E
:102F0000379527950A95AAF71124002D08952A0DC3
:102F10003B1D4C1D5D1D6E1D7F1D801F911F089563
:102F20002A193B094C095D096E097F09800B910B39
:102F300008950024A7FD00942A1730054005500588
:102F400060057005800590050895EE0FFF1F059040
:102F5000F491E02D0994A29FB001B39FC001A39FFB
:102F6000700D811D1124911DB29F700D811D1124C2
:102F7000911D08950F931F93CF93DF938230910596
:102F800010F482E090E0E091F603F091F70330E076
:102F900020E0B0E0A0E0309799F42115310509F464
:102FA0004AC0281B390B24303105D8F58A819B8112
:102FB0006115710589F1FB0193838283FE0111C0C4
:102FC000408151810281138148175907E0F0481769
:102FD000590799F4109761F012960C931297139673
:102FE0001C933296CF01DF91CF911F910F910895DD
:102FF0000093F6031093F703F4CF2115310551F038
:103000004217530738F0A901DB019A01BD01DF0126
:10301000F801C1CFEF01F9CF9093F7038093F60346
:10302000CDCFFE01E20FF31F81939193225031091E
:1030300039832883D7CF2091F4033091F503232BD4
:1030400041F420910201309103013093F503209364
:10305000F40320910001309101012115310541F463
:103060002DB73EB74091040150910501241B350B4B
:10307000E091F403F091F503E217F307A0F42E1B9F
:103080003F0B2817390778F0AC014E5F5F4F2417CC
:10309000350748F04E0F5F1F5093F5034093F4033C
:1030A000819391939FCFF0E0E0E09CCFCF93DF93AB
:1030B0000097E9F0FC01329713821282A091F60387
:1030C000B091F703ED0130E020E01097A1F42081EA
:1030D0003181820F931F2091F4033091F50328175B
:1030E000390709F061C0F093F503E093F403DF9131
:1030F000CF910895EA01CE17DF07E8F54A815B8199
:103100009E0141155105B1F7E901FB83EA8349911D
:103110005991C40FD51FEC17FD0761F4808191818F
:103120000296840F951FE901998388838281938198
:103130009B838A83F0E0E0E012968D919C91139737
:103140000097B9F52D913C911197CD010296820F10
:10315000931F2091F4033091F5032817390739F6AE
:10316000309751F51092F7031092F603B093F503E0
:10317000A093F403BCCFD383C28340815181840FD9
:10318000951FC817D90761F44E5F5F4F88819981F9
:10319000480F591F518340838A819B819383828387
:1031A0002115310509F0B0CFF093F703E093F60352
:1031B0009ECFFD01DC01C0CF13821282D7CF10E079
:1031C000CDE5D0E004C0FE010E94A5172196CE35C2
:1031D000D107C9F7F894FFCF0000F8038000000082
:1031E00000000902690196015602C701A501B90153
:1031F000000000002304F6035204CC03EF03DC03B9
:10320000CD030D0A006E616E00696E66006F766612
:10321000004E6F20736520656E636F6E7472C3B36A
:1032200020656C2073656E736F7220424D45323895
:103230003020656E204353203130004E6F2073657F
:1032400020656E636F6E7472C3B320656C20736506
:103250006E736F7220424D4532383020656E2043C8
:10326000532039004C6563747572612073696D7504
:103270006C74C3A16E656120646520646F732073F4
:10328000656E736F72657320424D4532383020751C
:1032900073616E646F205350490053656E736F7293
:1032A0002031202D3E2054656D703A200020C2B0A0
:1032B000432C2048756D656461643A200020252CFC
:1032C0002050726573696F6E3A200020685061006B
:1032D00053656E736F722032202D3E2054656D70E1
:0832E0003A20002D2D2D2D00D8
:107E0000112484B714BE81FFF0D085E080938100F7
:107E100082E08093C00088E18093C10086E0809377
:107E2000C20080E18093C4008EE0C9D0259A86E02C
:107E300020E33CEF91E0309385002093840096BBD3
:107E4000B09BFECF1D9AA8958150A9F7CC24DD24C4
:107E500088248394B5E0AB2EA1E19A2EF3E0BF2EE7
:107E6000A2D0813461F49FD0082FAFD0023811F036
:107E7000013811F484E001C083E08DD089C08234E0
:107E800011F484E103C0853419F485E0A6D080C0E4
:107E9000853579F488D0E82EFF2485D0082F10E0AE
:107EA000102F00270E291F29000F111F8ED06801E7
:107EB0006FC0863521F484E090D080E0DECF843638
:107EC00009F040C070D06FD0082F6DD080E0C81688
:107ED00080E7D80618F4F601B7BEE895C0E0D1E017
:107EE00062D089930C17E1F7F0E0CF16F0E7DF06D8
:107EF00018F0F601B7BEE89568D007B600FCFDCFD4
:107F0000A601A0E0B1E02C9130E011968C91119780
:107F100090E0982F8827822B932B1296FA010C0160
:107F200087BEE89511244E5F5F4FF1E0A038BF0790
:107F300051F7F601A7BEE89507B600FCFDCF97BE46
:107F4000E89526C08437B1F42ED02DD0F82E2BD052
:107F50003CD0F601EF2C8F010F5F1F4F84911BD097
:107F6000EA94F801C1F70894C11CD11CFA94CF0C13
:107F7000D11C0EC0853739F428D08EE10CD085E9AC
:107F80000AD08FE07ACF813511F488E018D01DD067
:107F900080E101D065CF982F8091C00085FFFCCF94
:107FA0009093C60008958091C00087FFFCCF809118
:107FB000C00084FD01C0A8958091C6000895E0E648
:107FC000F0E098E1908380830895EDDF803219F02E
:107FD00088E0F5DFFFCF84E1DECF1F93182FE3DFCA
:107FE0001150E9F7F2DF1F91089580E0E8DFEE27F6
:047FF000FF270994CA
:027FFE00040479
:00000001FF
