:020000040000FA
:100000000C945D000C9485000C9485000C94850084
:100010000C9485000C9485000C9485000C9485004C
:100020000C9485000C9485000C9485000C9485003C
:100030000C9485000C9485000C9485000C9485002C
:100040000C9481060C9485000C94F1060C94CB065C
:100050000C9485000C9485000C9485000C9485000C
:100060000C9485000C94850000000008000201003B
:100070000003040700000000000000000000000072
:10008000250028002B0000000000240027002A0083
:10009000040404040404040402020202020203032E
:1000A0000303030301020408102040800102040836
:1000B0001020010204081020230711241FBECFEFD7
:1000C000D8E0DEBFCDBF11E0A0E0B1E0E8EEF6E1A0
:1000D00002C005900D92A834B107D9F722E0A8E438
:1000E000B1E001C01D92A331B207E1F710E0CDE508
:1000F000D0E004C02197FE010E945D0BCC35D107F2
:10010000C9F70E946D070C94720B0C94000090E0EC
:10011000FC01EC55FF4F249180579F4FFC018491C7
:10012000882399F090E0880F991FFC01EA57FF4F50
:10013000A591B491FC01E458FF4F859194918FB73C
:10014000F894EC91E22BEC938FBF089590E0FC01C2
:10015000E859FF4F2491FC01EC55FF4F3491FC010D
:10016000E057FF4FE491EE23C9F0222339F023300A
:1001700001F1A8F4213019F1223029F1F0E0EE0F5D
:10018000FF1FE458FF4FA591B4918FB7F894EC91FD
:10019000611126C030953E233C938FBF08952730D0
:1001A000A9F02830C9F0243049F7809180008F7D74
:1001B00003C0809180008F7780938000DFCF84B56B
:1001C0008F7784BDDBCF84B58F7DFBCF8091B0006E
:1001D0008F778093B000D2CF8091B0008F7DF9CF20
:1001E0003E2BDACF3FB7F89480915A0190915B0192
:1001F000A0915C01B0915D0126B5A89B05C02F3F81
:1002000019F00196A11DB11D3FBFBA2FA92F982F3C
:100210008827BC01CD01620F711D811D911D42E037
:10022000660F771F881F991F4A95D1F70895AF92DF
:10023000BF92CF92DF92EF92FF920F931F93CF93D3
:10024000DF936C017B018B01040F151FEB015E0135
:10025000AE18BF08C017D10759F06991D601ED91CA
:10026000FC910190F081E02DC6010995892B79F769
:10027000C501DF91CF911F910F91FF90EF90DF901B
:10028000CF90BF90AF900895FC01538D448D252FE2
:1002900030E0842F90E0821B930B541710F0CF9620
:1002A000089501970895FC01918D828D981761F052
:1002B000A28DAE0FBF2FB11D5D968C91928D9F5F69
:1002C0009F73928F90E008958FEF9FEF0895FC0148
:1002D000918D828D981731F0828DE80FF11D858DFB
:1002E00090E008958FEF9FEF0895FC01918D228D8E
:1002F000892F90E0805C9F4F821B91098F73992713
:1003000008958EE591E00E94750121E0892B09F4A2
:1003100020E0822F089580E090E0892B29F00E9450
:10032000810181110C9400000895FC01A48DA80F97
:10033000B92FB11DA35ABF4F2C91848D90E0019627
:100340008F739927848FA689B7892C93A089B18947
:100350008C91837080648C93938D848D981306C0E8
:100360000288F389E02D80818F7D80830895EF924C
:10037000FF920F931F93CF93DF93EC0181E0888F5F
:100380009B8D8C8D98131AC0E889F989808185FF2F
:1003900015C09FB7F894EE89FF896083E889F989D1
:1003A00080818370806480839FBF81E090E0DF91D3
:1003B000CF911F910F91FF90EF900895F62E0B8D26
:1003C00010E00F5F1F4F0F731127E02E8C8D8E11E1
:1003D0000CC00FB607FCFACFE889F989808185FF48
:1003E000F5CFCE010E949501F1CFEB8DEC0FFD2FE3
:1003F000F11DE35AFF4FF0829FB7F8940B8FEA8903
:10040000FB8980818062CFCFCF93DF93EC01888D11
:100410008823B9F0AA89BB89E889F9898C9185FD7F
:1004200003C0808186FD0DC00FB607FCF7CF8C910D
:1004300085FFF2CF808185FFEDCFCE010E9495012F
:10044000E9CFDF91CF910895089590E080E008957D
:100450008EBD00000DB407FEFDCF8EB50895CF937D
:10046000DF93C82FD62F60E00E94A6008D2F8068F2
:100470000E94280280E00E942802D82F61E08C2F81
:100480000E94A6008D2FDF91CF910895CF92DF9229
:10049000EF92FF92CF93DF93D82FC92F60E00E9495
:1004A000A60067EF8D2F9C2F0E942F02C82E68EFA9
:1004B0008D2F9C2F0E942F02D12CF12CE12C9CE03F
:1004C000CC0CDD1CEE1CFF1C9A95D1F790E0B0E03F
:1004D000A0E024E0880F991FAA1FBB1F2A95D1F71F
:1004E000C82AD92AEA2AFB2A69EF8D2F9C2F0E945D
:1004F0002F02C82F61E08D2F0E94A6006C2F70E0A4
:1005000034E0759567953A95E1F7072E000C880B56
:10051000990B6C297D298E299F290E94F10920E0E1
:1005200030E040E85BE30E94A60ADF91CF91FF90A4
:10053000EF90DF90CF9008950F931F93CF93DF93A9
:100540008C01C62F0E942F02D82F61E06C0FC801CA
:100550000E942F02982F8D2FDF91CF911F910F9125
:1005600008958F929F92AF92BF92CF92DF92EF92B7
:10057000FF921F93CF93DF93182FF92EEB0160E0CA
:100580000E94A6006AEF812F9F2D0E942F02882EC5
:100590006BEF812F9F2D0E942F02912CB12CA12C4B
:1005A0009CE0880C991CAA1CBB1C9A95D1F790E082
:1005B000B0E0A0E024E0880F991FAA1FBB1F2A9576
:1005C000D1F7882A992AAA2ABB2A6CEF812F9F2D5E
:1005D0000E942F0290E034E0959587953A95E1F7D7
:1005E000092E000CAA0BBB0B6C017D01C828D92871
:1005F000EA28FB2861E0812F0E94A600A70196014E
:1006000063E055954795379527956A95D1F774E03E
:10061000F594E794D794C7947A95D1F7219709F088
:1006200063C08091520190915301B0E0A0E0C81ADC
:10063000D90AEA0AFB0A880F991FAA1FBB1F281BA9
:10064000390B4A0B5B0BA0915001B09151010E94F4
:10065000550B4B015C01ABE0B594A794979487943C
:10066000AA95D1F7A7019601C701B6010E94180B00
:100670009B01AC01BCE05595479537952795BA95F8
:10068000D1F7A0914E01B0914F010E94550B9B01F3
:10069000AC018EE055954795379527958A95D1F70A
:1006A000280D391D4A1D5B1DA5E0B0E00E944A0BD4
:1006B00060587F4F8F4F9F4F672F782F892F992733
:1006C0000E94EF0920E030E048EC52E40E944E091D
:1006D000DF91CF911F91FF90EF90DF90CF90BF906F
:1006E000AF909F908F90089580914C0190914D0113
:1006F000B0E0A0E0C81AD90AEA0AFB0A880F991FDD
:10070000AA1FBB1F281B390B4A0B5B0BA0914A0188
:10071000B0914B010E94550B4B015C017BE0B594FD
:10072000A794979487947A95D1F7A7019601C7016A
:10073000B6010E94180B9B01AC01ECE05595479562
:1007400037952795EA95D1F7A0914801B0914901D5
:100750009CCFEF92FF920F931F93CF93DF93EC0107
:1007600060E00E94A60060E08C2F0E94A60084E753
:100770000E94280287E20E94280261E08C2F0E94DA
:10078000A60060E08C2F0E94A60085E70E94280248
:1007900080EA0E94280261E08C2F0E94A60068E88F
:1007A000CE010E949C027C019093530180935201E0
:1007B0006AE8CE010E949C028C01909351018093C3
:1007C00050016CE8CE010E949C0290934F018093EF
:1007D0004E01F0924D01E0924C0110934B010093B9
:1007E0004A01909349018093480161E08C2FDF9189
:1007F000CF911F910F91FF90EF900C94A600FC01F8
:1008000001900020E9F73197AF01481B590BBC015B
:100810008BEF91E00C9417018F929F92AF92BF9251
:100820000F931F93CF93DF93CDB7DEB7A1970FB68A
:10083000F894DEBF0FBECDBF19A2423008F44AE0E3
:100840008E010F5D1F4F842E912CB12CA12CA50180
:1008500094010E94280BE62FB901CA01EA30F4F492
:10086000E05DD801EE938D01232B242B252B79F706
:1008700090E080E0109719F0CD010E94FF03A1964F
:100880000FB6F894DEBF0FBECDBFDF91CF911F91A1
:100890000F91BF90AF909F908F900895E95CE1CF4A
:1008A000CF93DF93EC0160E08E810E94A60061E0AF
:1008B0008E810E94A60060E08E810E94A6008BE8D7
:1008C00091E00197F1F7DF91CF910895CF92DF92F8
:1008D000EF92FF920F931F93CF93DF936C017C01F4
:1008E00087E0E80EF11CD0E0C0E0062F10E0B80170
:1008F0000C2E02C0759567950A94E2F76170F701B6
:1009000081917F010E94A6002196C430D10579F71C
:10091000C601DF91CF911F910F91FF90EF90DF9073
:10092000CF900C945004CF92DF92EF92FF920F93EE
:100930001F93CF93DF93EC01F62E642F8C810E94DE
:10094000A6008D818F3F19F060E00E94A6000F2D58
:1009500010E08F8584FF25C06E0187E0C80ED11C92
:10096000F12CE12CB8010E2C02C0759567950A9404
:10097000E2F76170F60181916F010E94A600FFEF1E
:10098000EF1AFF0A88E0E816F10461F7CE01DF9163
:10099000CF911F910F91FF90EF90DF90CF900C942B
:1009A0005004B80184E0759567958A95E1F7CE010A
:1009B0000E9466046F2DCE01DF91CF911F910F91A0
:1009C000FF90EF90DF90CF900C94660440E0682F8A
:1009D0008BEF91E00C949304CF93DF93823029F452
:1009E00090910A02986090930A0280930E021092EE
:1009F0000F0280E48093100280E18093110280E571
:100A0000809312028091FF010E9487008091000272
:100A10008F3F11F00E948700809101020E948700A1
:100A2000CBEFD1E09E012B5F314080910A0284FD23
:100A30000AC084E090E02196281739073CF48E81A3
:100A40000E948700EFCF88E090E0F5CF8BE39DE038
:100A50000197F1F760E08091FF010E94A60060E03D
:100A6000809101020E94A600809100028F3F19F040
:100A700060E00E94A60080910A0284FD39C063E014
:100A80008BEF91E00E946604CBE4D6E4CE0101979F
:100A9000F1F763E08BEF91E00E9466042197F1F794
:100AA00063E08BEF91E00E94660483E592E001979A
:100AB000F1F762E08BEF91E00E94660480910A02F8
:100AC00080620E94E60484E080930B028CE00E9426
:100AD000E60481E00E94E6048BE39FE10197F1F7D1
:100AE00082E080930C0286E0DF91CF910C94E604C3
:100AF00080620E94E6048BE496E40197F1F780910E
:100B00000A0280620E94E60483E592E00197F1F711
:100B100080910A0280620E94E604D0CF90910E027A
:100B2000691710F06FEF690FE62FF0E0E550FE4F08
:100B30009489890F80680C94E60441E00E94930434
:100B400081E090E008954F925F926F927F928F9232
:100B50009F92AF92BF92CF92DF92EF92FF920F934C
:100B60001F93CF936B017C01742EAC019B010E94FB
:100B7000130B882399F08EE191E0CF911F910F9193
:100B8000FF90EF90DF90CF90BF90AF909F908F90AD
:100B90007F906F905F904F900C94FF034601570138
:100BA000E894B7F82FEF3FEF4FE75FE7C501B401D7
:100BB0000E94130B81110DC02FEF3FEF4FE75FE74E
:100BC000C501B4010E94490918161CF482E291E0A3
:100BD000D4CF2FEF3FEF4FE75FE4C701B6010E948C
:100BE000A10A18161CF486E291E0C7CF2FEF3FEF61
:100BF0004FE75FECC701B6010E94490987FDF3CFBB
:100C000020E030E0A901C701B6010E94490910E0C7
:100C100000E087FF0CC041E06DE28BEF91E00E94A5
:100C20009304F7FAF094F7F8F09401E010E0C0E0D4
:100C300060E070E080E09FE37C1641F020E030E06F
:100C400040E251E40E944E09CF5FF6CFA701960122
:100C50000E94DD084B015C010E94C0092B013C0190
:100C60004AE00E940C04080F191FCC23C9F1C301EC
:100C7000B2010E94EF099B01AC01C501B4010E94C1
:100C8000DC084B015C0141E06EE28BEF91E00E94D9
:100C900093040F5F1F4FC15018F120E030E040E295
:100CA00051E4C501B4010E94A60A2B013C010E9437
:100CB000C0094B01B12CA12C4AE0C501B4010E942E
:100CC0000C04080F191FC501B4010E94EF099B0114
:100CD000AC01C301B2010E94DC084B015C01DBCF17
:100CE000C801CF911F910F91FF90EF90DF90CF90AF
:100CF000BF90AF909F908F907F906F905F904F903C
:100D000008951F920F920FB60F9211242F933F93C5
:100D10008F939F93AF93BF9380915601909157010A
:100D2000A0915801B09159013091550123E0230F52
:100D30002D3758F50196A11DB11D209355018093C3
:100D4000560190935701A0935801B0935901809197
:100D50005A0190915B01A0915C01B0915D010196F7
:100D6000A11DB11D80935A0190935B01A0935C017A
:100D7000B0935D01BF91AF919F918F913F912F9162
:100D80000F900FBE0F901F90189526E8230F029624
:100D9000A11DB11DD2CF1F920F920FB60F92112439
:100DA0002F933F934F935F936F937F938F939F9373
:100DB000AF93BF93EF93FF938EE591E00E9495016F
:100DC000FF91EF91BF91AF919F918F917F916F9123
:100DD0005F914F913F912F910F900FBE0F901F90F9
:100DE00018951F920F920FB60F9211242F938F9385
:100DF0009F93EF93FF93E0916E01F0916F018081DB
:100E0000E0917401F091750182FD1BC09081809189
:100E100077018F5F8F7320917801821741F0E09105
:100E20007701F0E0E25AFE4F958F80937701FF91B2
:100E3000EF919F918F912F910F900FBE0F901F9068
:100E400018958081F4CFEEE5F1E01382128288EEEE
:100E500093E0A0E0B0E084839583A683B78384E029
:100E600091E09183808385EC90E09587848784EC82
:100E700090E09787868780EC90E0918B808B81EC67
:100E800090E0938B828B82EC90E0958B848B86EC48
:100E900090E0978B868B118E128E138E148EEBEF53
:100EA000F1E01382128286E191E09183808387E0F2
:100EB00084838FEF858386E0868385E0878384E063
:100EC000808783E0818782E0828713861486158677
:100ED0001686178681E00C94EC04CF93DF9300D044
:100EE00000D0CDB7DEB7789484B5826084BD84B578
:100EF000816084BD85B5826085BD85B5816085BD15
:100F000080916E00816080936E00109281008091CC
:100F10008100826080938100809181008160809354
:100F20008100809180008160809380008091B10079
:100F300084608093B1008091B00081608093B000A4
:100F400080917A00846080937A0080917A00826038
:100F500080937A0080917A00816080937A008091FA
:100F60007A00806880937A001092C10082E00E942B
:100F7000EC048AE291E00E94FF032FB72983F894E2
:100F800080915401811124C0EAE9F0E08491EEEAF5
:100F9000F0E09491E82FF0E0EE0FFF1FEA57FF4FCB
:100FA000A591B491EC91E92321F461E08AE00E94DB
:100FB000A6008AE00E9487008CB580618CBD8CB54C
:100FC00080648CBD8DE00E9487008BE00E948700CA
:100FD000809154018F5F8093540189818FBF8AE093
:100FE0000E94870089E00E94870061E08AE00E94F9
:100FF000A60061E089E00E94A600E0916E01F091F8
:101000006F0182E08083E0916A01F0916B011082B0
:10101000E0916C01F0916D018FEC8083109276016C
:10102000E0917201F091730186E08083E09170019C
:10103000F0917101808180618083E0917001F09175
:101040007101808188608083E0917001F09171016D
:10105000808180688083E0917001F09171018081CE
:101060008F7D80838AE090E00E94A90389E090E070
:101070000E94A9030BE31FE161E070E08AE090E0C9
:101080000E94B1022B013C018AE090E00E944602DE
:101090004B015C0162E070E089E090E00E94B102E7
:1010A0006B017C0189E090E00E94460269837A83AB
:1010B0008B839C8381E00E94E604C8010197F1F7CD
:1010C00060E080E00E948E0587E391E00E94FF03CC
:1010D00041E0C301B2010E94A3058DE391E00E94AB
:1010E000FF0360E089E00E948E058FE391E00E949B
:1010F000FF0320E030E048EC52E4C501B4010E9457
:101100004E0941E00E94A30561E080E00E948E0547
:1011100082E491E00E94FF0341E0C701B6010E9412
:10112000A3058DE391E00E94FF0361E089E00E9446
:101130008E058FE391E00E94FF0320E030E048EC51
:1011400052E469817A818B819C810E944E0941E041
:101150000E94A3050E94F2006B017C0188EE882E9C
:1011600083E0982EA12CB12C0E94F2006C197D090D
:101170008E099F09683E734081059105A8F391E0AF
:10118000891A9108A108B10828EEC20E23E0D21EE8
:10119000E11CF11C81149104A104B10429F780E041
:1011A00090E0892B09F468CF0E948101882309F41B
:1011B00063CF0E94000060CF5058BB27AA270E942F
:1011C000F4080C94670A0E94590A38F00E94600AD9
:1011D00020F039F49F3F19F426F40C94560A0EF4CB
:1011E000E095E7FB0C94500AE92F0E94780A58F327
:1011F000BA17620773078407950720F079F4A6F5FC
:101200000C949A0A0EF4E0950B2EBA2FA02D0B0128
:10121000B90190010C01CA01A0011124FF27591B3B
:1012200099F0593F50F4503E68F11A16F040A22F41
:10123000232F342F4427585FF3CF469537952795B2
:10124000A795F0405395C9F77EF41F16BA0B620BB1
:10125000730B840BBAF09150A1F0FF0FBB1F661FF8
:10126000771F881FC2F70EC0BA0F621F731F841F3B
:1012700048F4879577956795B795F7959E3F08F061
:10128000B0CF9395880F08F09927EE0F9795879523
:1012900008950E942C0A08F481E008950E946209D2
:1012A0000C94670A0E94600A58F00E94590A40F0A4
:1012B00029F45F3F29F00C94500A51110C949B0AB9
:1012C0000C94560A0E94780A68F39923B1F35523C7
:1012D00091F3951B550BBB27AA2762177307840749
:1012E00038F09F5F5F4F220F331F441FAA1FA9F3DF
:1012F00035D00E2E3AF0E0E832D091505040E695CD
:10130000001CCAF72BD0FE2F29D0660F771F881F2D
:10131000BB1F261737074807AB07B0E809F0BB0B20
:10132000802DBF01FF2793585F4F3AF09E3F510534
:1013300078F00C94500A0C949B0A5F3FE4F3983EBB
:10134000D4F3869577956795B795F7959F5FC9F71D
:10135000880F911D9695879597F90895E1E0660F9E
:10136000771F881FBB1F621773078407BA0720F017
:10137000621B730B840BBA0BEE1F88F7E095089580
:101380000E94800A88F09F5798F0B92F9927B7518B
:10139000B0F0E1F0660F771F881F991F1AF0BA9519
:1013A000C9F714C0B13091F00E949A0AB1E00895D3
:1013B0000C949A0A672F782F8827B85F39F0B93FC5
:1013C000CCF3869577956795B395D9F73EF49095CC
:1013D0008095709561957F4F8F4F9F4F0895E8944A
:1013E00009C097FB3EF490958095709561957F4F6D
:1013F0008F4F9F4F9923A9F0F92F96E9BB2793951B
:10140000F695879577956795B795F111F8CFFAF42A
:10141000BB0F11F460FF1BC06F5F7F4F8F4F9F4F5B
:1014200016C0882311F096E911C0772321F09EE8B9
:10143000872F762F05C0662371F096E8862F70E01F
:1014400060E02AF09A95660F771F881FDAF7880FF9
:101450009695879597F90895990F0008550FAA0B4F
:10146000E0E8FEEF16161706E807F907C0F01216B7
:101470001306E407F50798F0621B730B840B950BBA
:1014800039F40A2661F0232B242B252B21F408950F
:101490000A2609F4A140A6958FEF811D811D0895AC
:1014A00097F99F6780E870E060E008959FEF80EC17
:1014B000089500240A9416161706180609060895BA
:1014C00000240A9412161306140605060895092E20
:1014D0000394000C11F4882352F0BB0F40F4BF2B8F
:1014E00011F460FF04C06F5F7F4F8F4F9F4F0895CF
:1014F00057FD9058440F551F59F05F3F71F04795C5
:10150000880F97FB991F61F09F3F79F087950895A9
:10151000121613061406551FF2CF4695F1DF08C0C8
:10152000161617061806991FF1CF869571056105E5
:1015300008940895E894BB2766277727CB0197F98D
:1015400008950E942C0A08F48FEF08950E94B90AAA
:101550000C94670A0E94590A38F00E94600A20F031
:10156000952311F00C94500A0C94560A11240C94F3
:101570009B0A0E94780A70F3959FC1F3950F50E083
:10158000551F629FF001729FBB27F00DB11D639F35
:10159000AA27F00DB11DAA1F649F6627B00DA11DDB
:1015A000661F829F2227B00DA11D621F739FB00D81
:1015B000A11D621F839FA00D611D221F749F3327F1
:1015C000A00D611D231F849F600D211D822F762F8A
:1015D0006A2F11249F5750409AF0F1F088234AF067
:1015E000EE0FFF1FBB1F661F771F881F91505040D3
:1015F000A9F79E3F510580F00C94500A0C949B0A69
:101600005F3FE4F3983ED4F3869577956795B79559
:10161000F795E7959F5FC1F7FE2B880F911D969573
:10162000879597F908950E942C0A880B990B0895C5
:10163000DB018F939F930E944A0BBF91AF91A29FB2
:10164000800D911DA39F900DB29F900D11240895C0
:10165000A1E21A2EAA1BBB1BFD010DC0AA1FBB1FB6
:10166000EE1FFF1FA217B307E407F50720F0A21B28
:10167000B30BE40BF50B661F771F881F991F1A9495
:1016800069F760957095809590959B01AC01BD01BF
:10169000CF0108950E94630BA59F900DB49F900DFC
:1016A000A49F800D911D11240895B7FF0C944A0B3F
:1016B0000E944A0B821B930B0895EE0FFF1F0590AB
:1016C000F491E02D0994A29FB001B39FC001A39FA4
:1016D000700D811D1124911DB29F700D811D11246B
:1016E000911D0895F894FFCF00000000B701170185
:1016F00044010402750153016701000000009D05CB
:101700001701250224026E616E00696E66006F7615
:101710006600496E696369616E646F2E2E2E0053F8
:101720003120543A004300503A00533220543A00DA
:107E0000112484B714BE81FFF0D085E080938100F7
:107E100082E08093C00088E18093C10086E0809377
:107E2000C20080E18093C4008EE0C9D0259A86E02C
:107E300020E33CEF91E0309385002093840096BBD3
:107E4000B09BFECF1D9AA8958150A9F7CC24DD24C4
:107E500088248394B5E0AB2EA1E19A2EF3E0BF2EE7
:107E6000A2D0813461F49FD0082FAFD0023811F036
:107E7000013811F484E001C083E08DD089C08234E0
:107E800011F484E103C0853419F485E0A6D080C0E4
:107E9000853579F488D0E82EFF2485D0082F10E0AE
:107EA000102F00270E291F29000F111F8ED06801E7
:107EB0006FC0863521F484E090D080E0DECF843638
:107EC00009F040C070D06FD0082F6DD080E0C81688
:107ED00080E7D80618F4F601B7BEE895C0E0D1E017
:107EE00062D089930C17E1F7F0E0CF16F0E7DF06D8
:107EF00018F0F601B7BEE89568D007B600FCFDCFD4
:107F0000A601A0E0B1E02C9130E011968C91119780
:107F100090E0982F8827822B932B1296FA010C0160
:107F200087BEE89511244E5F5F4FF1E0A038BF0790
:107F300051F7F601A7BEE89507B600FCFDCF97BE46
:107F4000E89526C08437B1F42ED02DD0F82E2BD052
:107F50003CD0F601EF2C8F010F5F1F4F84911BD097
:107F6000EA94F801C1F70894C11CD11CFA94CF0C13
:107F7000D11C0EC0853739F428D08EE10CD085E9AC
:107F80000AD08FE07ACF813511F488E018D01DD067
:107F900080E101D065CF982F8091C00085FFFCCF94
:107FA0009093C60008958091C00087FFFCCF809118
:107FB000C00084FD01C0A8958091C6000895E0E648
:107FC000F0E098E1908380830895EDDF803219F02E
:107FD00088E0F5DFFFCF84E1DECF1F93182FE3DFCA
:107FE0001150E9F7F2DF1F91089580E0E8DFEE27F6
:047FF000FF270994CA
:027FFE00040479
:00000001FF
