:100000000C9463000C948B000C948B000C948B006C
:100010000C948B000C948B000C948B000C948B0034
:100020000C948B000C948B000C948B000C948B0024
:100030000C948B000C948B000C948B000C948B0014
:100040000C94480A0C948B000C94B80A0C94920AF5
:100050000C948B000C948B000C948B000C948B00F4
:100060000C94EA0A0C948B00000000002300260088
:10007000290000000000240027002A0000000000E2
:10008000250028002B0004040404040404040202D4
:100090000202020203030303030301020408102007
:1000A0004080010204081020010204081020000012
:1000B0000008000201000003040700000000000027
:1000C0000000090C5D1011241FBECFEFD8E0DEBF89
:1000D000CDBF11E0A0E0B1E0E2E1F9E202C005909D
:1000E0000D92A236B107D9F723E0A2E6B1E001C034
:1000F0001D92A033B207E1F710E0C2E6D0E004C0E1
:100100002197FE010E944213C136D107C9F70E9410
:100110006F0C0C947C140C9400008230910538F024
:10012000880F991F880F991F05970197F1F7089578
:10013000833081F028F4813099F08230A9F008955D
:100140008730A9F08830C9F08430B1F48091800004
:100150008F7D03C0809180008F7780938000089509
:1001600084B58F7784BD089584B58F7DFBCF809152
:10017000B0008F778093B00008958091B0008F7D9C
:10018000F9CF1F93CF93DF93282F30E0F901E25589
:10019000FF4F8491F901E656FF4FD491F901EA57D8
:1001A000FF4FC491CC23A9F0162F81110E94980013
:1001B000EC2FF0E0EE0FFF1FE458FF4FA591B49134
:1001C0008FB7F894EC91111108C0D095DE23DC9321
:1001D0008FBFDF91CF911F910895DE2BF8CFCF9382
:1001E000DF9390E0FC01E656FF4F24918A579F4F22
:1001F000FC0184918823D1F090E0880F991FFC01C5
:10020000EE58FF4FA591B491FC01E458FF4FC59102
:10021000D49161110EC09FB7F8948C91E22FE095B4
:100220008E238C932881E223E8839FBFDF91CF91B7
:1002300008958FB7F894EC91E22BEC938FBFF6CF33
:100240003FB7F8948091BA019091BB01A091BC0195
:10025000B091BD0126B5A89B05C02F3F19F00196AE
:10026000A11DB11D3FBFBA2FA92F982F8827BC0110
:10027000CD01620F711D811D911D42E0660F771F38
:10028000881F991F4A95D1F708958F929F92AF9238
:10029000BF92CF92DF92EF92FF924B015C010E94DE
:1002A00020016B017C010E9420016C197D098E09DF
:1002B0009F09683E734081059105A8F321E0821AE9
:1002C0009108A108B10888EEC80E83E0D81EE11C91
:1002D000F11C81149104A104B10429F7FF90EF905F
:1002E000DF90CF90BF90AF909F908F90089508952A
:1002F0000895AF92BF92CF92DF92EF92FF920F9349
:100300001F93CF93DF936C017B018B01040F151FAB
:10031000EB015E01AE18BF08C017D10759F0699113
:10032000D601ED91FC910190F081E02DC601099577
:10033000892B79F7C501DF91CF911F910F91FF9024
:10034000EF90DF90CF90BF90AF900895FC01538D58
:10035000448D252F30E0842F90E0821B930B54179F
:1003600010F0CF96089501970895FC01918D828D2C
:10037000981761F0A28DAE0FBF2FB11D5D968C91C5
:10038000928D9F5F9F73928F90E008958FEF9FEF04
:100390000895FC01918D828D981731F0828DE80FC0
:1003A000F11D858D90E008958FEF9FEF0895FC017A
:1003B000918D228D892F90E0805C9F4F821B910947
:1003C0008F739927089580E392E00E94D70121E07E
:1003D000892B09F420E0822F089580E090E0892B9A
:1003E00029F00E94E30181110C9400000895FC01A2
:1003F000A48DA80FB92FB11DA35ABF4F2C91848D86
:1004000090E001968F739927848FA689B7892C93E2
:10041000A089B1898C91837080648C93938D848D35
:10042000981306C00288F389E02D80818F7D808338
:100430000895EF92FF920F931F93CF93DF93EC01F8
:1004400081E0888F9B8D8C8D98131AC0E889F9897B
:10045000808185FF15C09FB7F894EE89FF8960837E
:10046000E889F98980818370806480839FBF81E0FF
:1004700090E0DF91CF911F910F91FF90EF90089541
:10048000F62E0B8D10E00F5F1F4F0F731127E02E1C
:100490008C8D8E110CC00FB607FCFACFE889F98954
:1004A000808185FFF5CFCE010E94F701F1CFEB8D62
:1004B000EC0FFD2FF11DE35AFF4FF0829FB7F89428
:1004C0000B8FEA89FB8980818062CFCFCF93DF9346
:1004D000EC01888D8823B9F0AA89BB89E889F9895C
:1004E0008C9185FD03C0808186FD0DC00FB607FC91
:1004F000F7CF8C9185FFF2CF808185FFEDCFCE01C4
:100500000E94F701E9CFDF91CF9108950895FC0192
:1005100083858F3F19F061E00C94C1000895FC01C0
:1005200080819181892B39F0A281B3819C911196B0
:100530008C919CBD8DBD83858F3F19F060E00C943C
:10054000C1000895AF92BF92CF92DF92EF92FF92D7
:100550000F931F93CF93DF93EC0188819981892BAF
:1005600089F06EBD0DB407FEFDCFBEB48B2DDF91BB
:10057000CF911F910F91FF90EF90DF90CF90BF90A0
:10058000AF9008958885998511E0892B09F010E8CE
:10059000AA24A394862F812309F0A12C062F2C8155
:1005A0003D814E815F8160E271EA87E090E00E94C8
:1005B000EE12F22EB02EE12CC22ED12CFF2019F01B
:1005C000C6010E948D008A85877F09F042C08D8513
:1005D0008F3F89F0902F912381E009F480E08A1504
:1005E00051F0EF85F8898F89992369F19081892BE2
:1005F0008083AA24A394E989FA898081998D892B23
:100600008083FF2019F0C6010E948D008E858F3FE8
:1006100039F0EB89FC898081988D892309F0E12AE2
:10062000E989FA899081898D8095892380838E85D7
:100630008F3F09F0BE2C88859985892BB9F5110F5C
:100640001111BCCF93CF9081809589238083A12CF9
:10065000D2CFE989FA898081998D892B8083FF2007
:1006600019F0C6010E948D008D858F3F49F0EF85FE
:10067000F8898F89902F9123A9F09081892B80830D
:10068000E989FA899081898D8095892380838E8577
:100690008F3F69F2EB89FC898081988D892339F23B
:1006A000E12AC5CF908180958923E9CF1695C8CFDF
:1006B000CF92DF92EF92FF920F931F93CF93DF932E
:1006C0008C01EB016A0179010E948F026881C801E7
:1006D0000E94A202E601EC0CFD1C6FEFC8010E9413
:1006E000A2028993CE15DF05C1F7C8010E948702D7
:1006F00081E0DF91CF911F910F91FF90EF90DF90FC
:10070000CF90089520918301260F3327331F213284
:100710003105ECF420910602FC0190E080E02430E9
:1007200069F082E00895A09183012191AC014D59B7
:100730005E4FA40FB52FB11D2C930196861798F329
:1007400080918301680F6093830180E0089581E0C8
:1007500008951092060281E0809305021092E00154
:1007600061E082E10E94C10061E083E10E94C1007A
:10077000E9EBF0E080818E7F808380818D7F8083B4
:1007800088E48093B80085E48093BC000895CF93FB
:10079000DF9391E0909362018823B9F0C091B80093
:1007A000D091BA008091BC008A7B8093BC0060E04D
:1007B00082E10E94C10060E083E10E94C1000E94CA
:1007C000A903D093BA00C093B800DF91CF910895E8
:1007D0008F929F92AF92BF92CF92DF92EF92FF9251
:1007E0000F931F93CF93DF93D0912F02D13208F054
:1007F000D7C0182FC0912E020E9420016B017C01EE
:100800008091060281116BC082E0809306021093F2
:1008100005028FEF8093040210920302D09302022C
:10082000AEE0B2E0E2EEF1E080E0D81391C01092C9
:10083000E1018091E101CC0FC82BC093E1018091CF
:10084000E001813009F088C01092E0010E9420018F
:100850006B017C018091E1018093BB0080910802D3
:1008600090910902A0910A02B0910B02892B8A2B68
:100870008B2BA1F00E942001009108021091090227
:1008800020910A0230910B026C197D098E099F0993
:10089000061717072807390708F442C08091BC00E3
:1008A00083FDD8CF85EC8093BC000E9420016B01B2
:1008B0007C0180910602823009F450C080910402CC
:1008C0008F3F09F46FC080910402803209F46CC03C
:1008D00080910402803309F469C084E026C08091CD
:1008E000080290910902A0910A02B0910B02892B93
:1008F0008A2B8B2B09F484CF0E9420018090080260
:1009000090900902A0900A02B0900B026C197D0928
:100910008E099F0986169706A806B90608F070CFBB
:10092000809107020E94C70385E010920D02109289
:100930002F0210920C02DF91CF911F910F91FF9027
:10094000EF90DF90CF90BF90AF909F908F900895E1
:100950009D9191938F5F69CF85EEA5CF809108021D
:1009600090910902A0910A02B0910B02892B8A2B67
:100970008B2B09F49ECF0E94200100910802109158
:10098000090220910A0230910B026C197D098E092F
:100990009F09061717072807390708F08ACFC0CF25
:1009A00081E0C3CF80E0C1CF82E0BFCF83E0BDCF85
:1009B0001F93CF93DF93EA01122FDC0111968D91E3
:1009C0009C91DC01ED91FC910280F381E02D099571
:1009D000C817D90729F4812F0E94E80391E08111FB
:1009E00090E0892FDF91CF911F910895CF93DF93EE
:1009F000EC018B818823A1F0888191E090930C0217
:100A000080932E0210920D0210922F0281E00E941C
:100A1000E80391E0811190E0892FDF91CF91089553
:100A20001092BF011092BE0110920D0210922F027F
:100A30000E94A90387E791E09093A8018093A70102
:100A400088E791E09093AA018093A90181E08B83CC
:100A5000CE010E94F604982F8111CECFDDCF0895EC
:100A6000E091BF018091BE01E81730F4F0E0E0545E
:100A7000FE4F808190E008958FEF9FEF0895909151
:100A8000BF018091BE012FEF3FEF981748F4E92F87
:100A9000F0E0E054FE4F208130E09F5F9093BF0173
:100AA000C90108958091BE019091BF01891B990BE6
:100AB0000895CF92DF92EF92FF920F931F93CF93FF
:100AC000DF937C01CB018A0120910C02222389F063
:100AD000EB016B01C40ED51ECC15DD0569F06991E3
:100AE000D701ED91FC910190F081E02DC7010995AE
:100AF000F3CF642F0E948203C801DF91CF911F9131
:100B00000F91FF90EF90DF90CF900895CF93DF93F8
:100B10001F92CDB7DEB7698320910C022223F9F032
:100B200020912F02203258F021E030E0FC01338385
:100B3000228390E080E00F90DF91CF910895809123
:100B40000D02E82FF0E0E25FFD4F998190838F5F07
:100B500080930D0280932F0281E090E0ECCF61E062
:100B6000CE0101960E948203F7CF90E080E00895C5
:100B70000F931F93CF93DF9300D0CDB7DEB76A8377
:100B8000E091F102F091F2023097F9F089838481CB
:100B90009581029798F0808191E090930C02809368
:100BA0002E0210920D0210922F0221E042E050E03E
:100BB000BE016F5F7F4FCF010E94D8040F900F904E
:100BC000DF91CF911F910F9108958F7789830091C5
:100BD000F3021091F402C8010E948F026981C801DA
:100BE0000E94A2026A81C8010E94A202C8010E945A
:100BF0008702E4CF2F923F924F925F926F927F9243
:100C00008F929F92AF92BF92CF92DF92EF92FF921C
:100C10000F931F93CF93DF93DC011496ED91FC911A
:100C20001597EF2B09F425C169012A01EC01888190
:100C300091E090930C0280932E0210920D0210927C
:100C40002F0220E041E050E0CD010E94D804782E30
:100C5000882309F40EC1F12CE12C332433948C81C8
:100C60009D8186010E191F098017910708F48C01D8
:100C700028800E9420014B015C01809106028111B5
:100C800073C0602EB0E2B01710F480E2682E30928C
:100C9000060221E0C601801B910BE816F90608F454
:100CA00020E020930502EFEFE0930402109203028C
:100CB0008FEF860D809302023092E1018091E10175
:100CC000220C282A2092E1018091E001813009F074
:100CD00090C01092E0010E9420014B015C018091C4
:100CE000E1018093BB008091080290910902A091DC
:100CF0000A02B0910B02892B8A2B8B2BA1F00E9448
:100D00002001209108023091090240910A0250917D
:100D10000B02681979098A099B09261737074807C2
:100D2000590708F442C08091BC0083FDD8CFF5EC90
:100D3000F093BC000E9420014B015C0180910602EF
:100D4000813009F45AC080910302861510F4609036
:100D50000302A2EEB1E0E0ECF1E080E0861551F193
:100D60009D9191938F5FFACF809108029091090233
:100D7000A0910A02B0910B02892B8A2B8B2B09F4CC
:100D80007CCF0E94200120910802309109024091FD
:100D90000A0250910B02681979098A099B092617E2
:100DA00037074807590708F068CF809107020E946B
:100DB000C703612C1092BF016092BE01601611063C
:100DC00009F057C042018E0C9F1C5401C5018819BF
:100DD00099098017910798F589819A81DC01ED9135
:100DE000FC910284F385E02D0995F50181935F0163
:100DF000EDCF85EE8093BC009DCF8091080290914D
:100E00000902A0910A02B0910B02892B8A2B8B2B2D
:100E100009F494CF0E942001209108023091090228
:100E200040910A0250910B02681979098A099B09BD
:100E3000261737074807590708F080CFB6CFE00ECE
:100E4000F11EEC14FD0408F40ACF872DDF91CF9139
:100E50001F910F91FF90EF90DF90CF90BF90AF90D8
:100E60009F908F907F906F905F904F903F902F90CA
:100E70000895712CEACFCF93DF931F92CDB7DEB7E1
:100E8000E091F102F091F202898321E030E0AE01BD
:100E90004F5F5F4FBA01309741F0CF010E94FA05D2
:100EA00089810F90DF91CF9108958091F302909105
:100EB000F4020E945803F4CFCF93DF9300D0CDB754
:100EC000DEB7E091F102F091F202898322E030E096
:100ED000AE014F5F5F4FBA01309751F0CF010E94D2
:100EE000FA0589819A810F900F90DF91CF91089533
:100EF0008091F3029091F4020E945803F2CFCF93B5
:100F0000DF93EC0160E08E810E94C10061E08E8180
:100F10000E94C10060E08E810E94C1008BE891E0D8
:100F20000197F1F7DF91CF910895CF92DF92EF9281
:100F3000FF920F931F93CF93DF936C017C0187E0A7
:100F4000E80EF11CD0E0C0E0062F10E0B8010C2E36
:100F500002C0759567950A94E2F76170F701819177
:100F60007F010E94C1002196C430D10579F7C601E6
:100F7000DF91CF911F910F91FF90EF90DF90CF9075
:100F80000C947F07CF92DF92EF92FF920F931F9303
:100F9000CF93DF93EC01F62E642F8C810E94C10069
:100FA0008D818F3F19F060E00E94C1000F2D10E08D
:100FB0008F8584FF25C06E0187E0C80ED11CF12CFF
:100FC000E12CB8010E2C02C0759567950A94E2F7E2
:100FD0006170F60181916F010E94C100FFEFEF1A6D
:100FE000FF0A88E0E816F10461F7CE01DF91CF91A6
:100FF0001F910F91FF90EF90DF90CF900C947F079F
:10100000B80184E0759567958A95E1F7CE010E9455
:1010100095076F2DCE01DF91CF911F910F91FF901A
:10102000EF90DF90CF900C94950740E0682F89ED0A
:1010300092E00C94C207CF93DF93823029F4909111
:10104000E80298609093E8028093EC021092ED021F
:1010500080E48093EE0280E18093EF0280E580934C
:10106000F00261E08091DD020E94EF008091DE02DB
:101070008F3F19F061E00E94EF0061E08091DF0294
:101080000E94EF00C9EDD2E09E01295D32408091BF
:10109000E80284FD0BC084E090E021962817390710
:1010A00044F461E08E810E94EF00EECF88E090E092
:1010B000F4CF8BE39DE00197F1F760E08091DD02D2
:1010C0000E94C10060E08091DF020E94C100809117
:1010D000DE028F3F19F060E00E94C1008091E802BB
:1010E00084FD39C063E089ED92E00E949507CBE46E
:1010F000D6E4CE010197F1F763E089ED92E00E941A
:1011000095072197F1F763E089ED92E00E9495073A
:1011100083E592E00197F1F762E089ED92E00E94A9
:1011200095078091E80280620E94150884E0809310
:10113000E9028CE00E94150881E00E9415088BE30B
:101140009FE10197F1F782E08093EA0286E0DF9168
:10115000CF910C94150880620E9415088BE496E4E8
:101160000197F1F78091E80280620E94150883E5FB
:1011700092E00197F1F78091E80280620E941508E1
:10118000D0CF41E00E94C20781E090E00895FB01CA
:1011900001900020E9F73197AF01461B570BDC01A6
:1011A000ED91FC910280F381E02D09948F929F9242
:1011B000AF92BF92EF92FF920F931F93CF93DF9363
:1011C000CDB7DEB7A1970FB6F894DEBF0FBECDBF87
:1011D0007C01FA01CB0119A2223008F42AE08E0129
:1011E0000F5D1F4F822E912CB12CA12CBF01A501A8
:1011F00094010E94EE12F901CA016A300CF5605D9B
:10120000D8016E938D01232B242B252B79F790E0A9
:1012100080E0109721F0BD01C7010E94C708A19688
:101220000FB6F894DEBF0FBECDBFDF91CF911F91F7
:101230000F91FF90EF90BF90AF909F908F90089587
:10124000695CDECF2F923F924F925F926F927F92B6
:101250008F929F92AF92BF92CF92DF92EF92FF92C6
:101260001F93CF93DF93EC016A017B01722EAB01D8
:101270009601CB01B6010E94D91266E371E081119B
:1012800026C046015701E894B7F82FEF3FEF4FE72C
:101290005FE7C501B4010E94D91281110CC02FEF84
:1012A0003FEF4FE75FE7C501B4010E940F116AE30A
:1012B00071E0181664F02FEF3FEF4FE75FE4C701CE
:1012C000B6010E9467121816B4F46EE371E0CE0105
:1012D000DF91CF911F91FF90EF90DF90CF90BF9063
:1012E000AF909F908F907F906F905F904F903F90C6
:1012F0002F900C94C7082FEF3FEF4FE75FECC7012B
:10130000B6010E940F1187FDE0CF20E030E0A90177
:10131000C701B6010E940F11312C212C87FF0DC08F
:10132000E881F9810190F081E02D6DE2CE0109950F
:101330001C01F7FAF094F7F8F09410E060E070E028
:1013400080E09FE3711641F020E030E040E251E49C
:101350000E9414111F5FF6CFA70196010E94A310EF
:101360002B013C010E9486114B015C012AE0BC016B
:10137000A401CE010E94D6087C01E20CF31C1123CB
:10138000E1F1C501B4010E94B5119B01AC01C3019B
:10139000B2010E94A2104B015C01E881F981019029
:1013A000F081E02D6EE2CE010995E80EF91E115094
:1013B00020F120E030E040E251E4C501B4010E9498
:1013C0006C122B013C010E9486114B01B12CA12C07
:1013D0002AE0B501A401CE010E94D608E80EF91E4C
:1013E000C501B4010E94B5119B01AC01C301B2015A
:1013F0000E94A2104B015C01DACFC701DF91CF91AF
:101400001F91FF90EF90DF90CF90BF90AF909F9093
:101410008F907F906F905F904F903F902F900895A6
:1014200085ED8093BC008091080290910902A09103
:101430000A02B0910B020796A11DB11D23E0B695DB
:10144000A795979587952A95D1F72091BC0024FD03
:1014500003C01092060208954091080250910902BB
:1014600060910A0270910B02452B462B472B69F3C2
:101470000097A105B10541F02AE22A95F1F700C0D5
:101480000197A109B109E1CF809107020C94C7032C
:101490001F920F920FB60F9211242F933F938F93A9
:1014A0009F93AF93BF938091B6019091B701A091A4
:1014B000B801B091B9013091B50123E0230F2D3768
:1014C00058F50196A11DB11D2093B5018093B60179
:1014D0009093B701A093B801B093B9018091BA017C
:1014E0009091BB01A091BC01B091BD010196A11DDD
:1014F000B11D8093BA019093BB01A093BC01B0933E
:10150000BD01BF91AF919F918F913F912F910F900E
:101510000FBE0F901F90189526E8230F0296A11D6D
:10152000B11DD2CF1F920F920FB60F9211242F939D
:101530003F934F935F936F937F938F939F93AF935B
:10154000BF93EF93FF9380E392E00E94F701FF9136
:10155000EF91BF91AF919F918F917F916F915F912B
:101560004F913F912F910F900FBE0F901F901895A4
:101570001F920F920FB60F9211242F938F939F9368
:10158000EF93FF93E0914002F09141028081E0915E
:101590004602F091470282FD1BC090818091490272
:1015A0008F5F8F7320914A02821741F0E0914902C8
:1015B000F0E0E05DFD4F958F80934902FF91EF9140
:1015C0009F918F912F910F900FBE0F901F901895A4
:1015D0008081F4CF1F920F920FB60F9211242F9398
:1015E0003F934F935F936F937F938F939F93AF93AB
:1015F000BF93EF93FF938091B900887F803609F401
:101600004AC0F0F5883209F4A7C018F5803109F412
:101610009BC0B8F4882309F4F9C0883009F494C059
:10162000FF91EF91BF91AF919F918F917F916F91BA
:101630005F914F913F912F910F900FBE0F901F9090
:101640001895883109F488C0803251F780930402DC
:1016500014C0803409F49DC040F48033B9F388335A
:10166000F9F68093040285ECB0C0803509F485C09A
:10167000883509F496C0883499F60E94100AD0CFB4
:10168000883909F48CC038F5883729F050F4883649
:1016900011F0803729F683E0809306021092A501AD
:1016A00057C0883809F47BC0803919F0803809F0B8
:1016B000B7CF8091A501803208F071C0E091A501FB
:1016C00081E08E0F8093A5018091BB00F0E0EB5785
:1016D000FE4F80833DC0803B39F0E0F4803A09F44E
:1016E00079C0883A09F09CCF84E08093060210927A
:1016F000840110928301E091A701F091A80109955E
:101700008091830181110FC081E080938301109249
:10171000630109C0803C09F4A6CF883C09F4A3CF3B
:10172000883B09F07DCFE091840181E08E0F8093AA
:101730008401F0E0ED59FE4F80818093BB009091D1
:1017400084018091830129C08091E1018093BB00D5
:1017500085EC8093BC0064CF9091030280910202DB
:10176000981758F5E091030281E08E0F80930302F1
:10177000F0E0EE51FE4F8081E9CFE091030281E07D
:101780008E0F809303028091BB00F0E0EE51FE4F7C
:10179000808390910302809102029817C8F285E835
:1017A000D8CFE091030281E08E0F809303028091F5
:1017B000BB00F0E0EE51FE4F808380910502811165
:1017C0005CCF81E08093E00184EA8093BC001092BA
:1017D000060226CF85EC8093BC0010920602809111
:1017E000A501803230F4E091A501F0E0EB57FE4F07
:1017F00010826091A50170E0E091A901F091AA0129
:1018000085E891E009951092A5010ACF1092040293
:1018100034CFE0E3F2E01382128288EE93E0A0E09E
:10182000B0E084839583A683B7832AE031E03183D7
:10183000208325EC30E03587248724EC30E037879F
:10184000268720EC30E0318B208B21EC30E0338B8D
:10185000228B22EC30E0358B248B26EC30E0378B6A
:10186000268B118E128E138E148EEDECF2E0138205
:10187000128284839583A683B7838CE191E0918360
:101880008083E1EFF2E011821082138212821582CE
:1018900014821782168211861086138A148A158A7A
:1018A000168AE9EDF2E0138212828EE291E09183D2
:1018B000808387E084838FEF858386E0868385E05D
:1018C000878384E0808783E0818782E08287138634
:1018D000148615861686178681E00C941B08CF9314
:1018E000DF9300D000D000D01F92CDB7DEB7789440
:1018F00084B5826084BD84B5816084BD85B5826015
:1019000085BD85B5816085BD80916E0081608093C5
:101910006E0010928100809181008260809381002E
:10192000809181008160809381008091800081603E
:10193000809380008091B10084608093B100809199
:10194000B00081608093B00080917A0084608093C1
:101950007A0080917A00826080937A0080917A0088
:10196000816080937A0080917A00806880937A0009
:101970001092C10060E089E00E94EF0061E088E021
:101980000E94EF0061E08AE00E94EF0082E00E9486
:101990001B080091F3021091F4020115110509F0E2
:1019A00042C08091F1029091F202009711F00E94E2
:1019B000F31386E090E00E9457138C0186E7F8014C
:1019C00080838DEC92E092838183138280E290E0A9
:1019D000958384831093F2020093F1021092BF0169
:1019E0001092BE0110920D0210922F020E94A903C4
:1019F00087E791E09093A8018093A70188E791E0A1
:101A00009093AA018093A90181E0F8018383C80122
:101A10000E94F60481114FC062E471E089ED92E00A
:101A20000E94C708FFCFF80183858F3F41F061E036
:101A30000E94EF0061E0F80183850E94C100F80177
:101A400080819181892B09F4FAC2FFB6F8948091C4
:101A5000A601811127C0E0E9F0E08491E4EAF0E01A
:101A60009491E82FF0E0EE0FFF1FEE58FF4FA59185
:101A7000B491EC91E92321F461E08AE00E94C10075
:101A800061E08AE00E94EF008CB580618CBD8CB56E
:101A900080648CBD61E08DE00E94EF0061E08BE02E
:101AA0000E94EF008091A6018F5F8093A601FFBE88
:101AB00081E0F801838F80ED0E943B0790E0B0E069
:101AC000A0E08093FC029093FD02A093FE02B093ED
:101AD000FF0280369105A105B10509F09DCF66EBA7
:101AE00080EE0E94B8056AE070E080E090E00E941D
:101AF000450183EF0E943B0780FDF5CF88E80E94F7
:101B00005C0790930903809308038AE80E945C07AE
:101B100090930B0380930A038CE80E945C079093D8
:101B20000D0380930C038EE80E945C0790930F03D3
:101B300080930E0380E90E945C07909311038093C9
:101B4000100382E90E945C079093130380931203B1
:101B500084E90E945C07909315038093140386E93F
:101B60000E945C07909317038093160388E90E94F4
:101B70005C0790931903809318038AE90E945C071D
:101B800090931B0380931A038CE90E945C07909347
:101B90001D0380931C038EE90E945C0790931F0332
:101BA00080931E0381EA0E943B078093200381EE0D
:101BB0000E945C07909322038093210383EE0E948E
:101BC0003B078093230384EE0E943B07182F85EE8A
:101BD0000E943B07F0E11F02900111248F70282B17
:101BE000309325032093240386EE0E943B07182F91
:101BF00085EE0E943B0740E114029001112490E021
:101C000014E0959587951A95E1F7822B932B909385
:101C100027038093260387EE0E943B0780932803C7
:101C20008DEE80932A0380912B038F71806A8093BD
:101C30002B0380912903807C8F778093290360E0B8
:101C400084EF0E94B80560912B03629566956770DA
:101C500082EF0E94B80580912903682F677050E2D7
:101C6000659FB0011124282F26952695269527706B
:101C700094E0299F90011124622B87FB882780F92B
:101C8000682B85EF0E94B80580912A03682F677042
:101C9000E0E26E9FB0011124282F26952695269507
:101CA0002770F4E02F9F90011124622B8295869576
:101CB00086958370682B84EF0E94B80564E670E017
:101CC00080E090E00E944501E0914002F0914102E5
:101CD00082E08083E0913C02F0913D021082E0912D
:101CE0003E02F0913F028FEC808310924802E09117
:101CF0004402F091450286E08083E0914202F09137
:101D00004302808180618083E0914202F09143022E
:101D1000808188608083E0914202F091430280815B
:101D200080688083E0914202F091430280818F7D40
:101D3000808301E0412C512C3201539411E0BBE32C
:101D40002B2EBFE13B2E8FB7F8948090B601909078
:101D5000B701A090B801B090B9018FBFE7EBF0E0F8
:101D60008491E3EAF0E0E490EFE8F0E0F490FF2003
:101D700009F487C181110E949800EF2DF0E0EE0F69
:101D8000FF1FE859FF4FA591B4918C91E82231E0F3
:101D900020E009F430E0832F922F4091B10150915F
:101DA000B2016091B3017091B40175016401C41A6C
:101DB000D50AE60AF70AB701A601433351056105C2
:101DC000710568F0019709F05FC11093B00180922E
:101DD000B1019092B201A092B301B092B4016091AE
:101DE000B00188E00E94C1008091AC019091AD01EA
:101DF000A091AE01B091AF01A5019401281B390B50
:101E00004A0B5B0BDA01C901843F9140A105B10582
:101E100080F08092AC019092AD01A092AE01B092A0
:101E2000AF016091AB0160276093AB018AE00E9433
:101E3000C1008091F1029091F202009709F427C14C
:101E40002AEF298323E030E0AE014F5F5F4FBA01F4
:101E50000E94FA058981CA80D12CF12CE12CFE2C3C
:101E6000ED2CDC2CCC24E82A8B81C82AC114D104A7
:101E700040E8E406F10409F419C180900803909049
:101E80000903A701960197E0559547953795279542
:101E90009A95D1F7B12CA12CD501C401880F991FB7
:101EA000AA1FBB1F281B390B4A0B5B0BA0910A030F
:101EB000B0910B030E943A136C837D838E839F83C2
:101EC000CD2CDE2CEF2CFF24E7FCFA94C701B601E1
:101ED000681979098A099B099B01AC010E94DE12ED
:101EE0009B01AC01ECE05595479537952795EA9510
:101EF000D1F7A0910C03B0910D030E943A136B012E
:101F00007C016C817D818E819F8120E038E040E002
:101F100050E00E94101349015A01C701B60120E0A8
:101F200030E440E050E00E941013280D391D4A1D96
:101F30005B1D8090040390900503A0900603B09071
:101F40000703280D391D4A1D5B1D209300033093A4
:101F500001034093020350930303A5E0B0E00E9405
:101F60002F1360587F4F8F4F9F4FA30192010E9404
:101F70001013CA01B9010E94B71120E030E048EC0B
:101F800052E40E9414116B017C0160E571E080E372
:101F900092E00E94C70822E0B701A60180E392E028
:101FA0000E94220967E571E080E392E00E94C70881
:101FB00081E00E941508C1010197F1F7E1E08091ED
:101FC000EC028111E0E0E195F0E0E752FD4F8489F9
:101FD00080680E9415086AE571E089ED92E00E9430
:101FE000C708E1E08091EC028111E0E0E195F0E0CA
:101FF000E752FD4F84898A5F80680E94150821E0BE
:10200000B701A60189ED92E00E94220960E671E025
:1020100089ED92E00E94C70864E670E080E090E0FD
:102020000E94450180E090E0892B09F48CCE0E944B
:10203000E301882309F483CE0E94000080CE61E092
:1020400084850E94EF00F80182858B7F60E009F0B3
:1020500061E084850E94C100F80185858F3F41F0D1
:1020600061E00E94EF0061E0F80185850E94C100F7
:10207000F80186858F3F09F41BCD60E00E94EF00D8
:1020800017CD90E080E089CE1092B001A0CE8AEF0B
:10209000898323E030E0AE014F5F5F4FBA0180914A
:1020A000F3029091F4020E945803D4CEC12CD12C9B
:1020B00080ECE82E8FE7F82E68CFCF93DF93C091A6
:1020C000F302D091F402209749F08A819B81009716
:1020D00011F00E94F313CE010E94F3138091F102DC
:1020E0009091F202009711F00E94F3138091F50293
:1020F0009091F602009739F0DC01ED91FC9102809D
:10210000F381E02D09958091F7029091F8020097F4
:1021100039F0DC01ED91FC910280F381E02D09950D
:102120008091F9029091FA02009749F0DC01ED915B
:10213000FC910280F381E02DDF91CF910994DF9132
:10214000CF9108955058BB27AA270E94BA100C942B
:102150002D120E941F1238F00E94261220F039F42E
:102160009F3F19F426F40C941C120EF4E095E7FB43
:102170000C941612E92F0E943E1258F3BA17620708
:1021800073078407950720F079F4A6F50C94601284
:102190000EF4E0950B2EBA2FA02D0B01B901900182
:1021A0000C01CA01A0011124FF27591B99F0593FC6
:1021B00050F4503E68F11A16F040A22F232F342F0E
:1021C0004427585FF3CF469537952795A795F0405C
:1021D0005395C9F77EF41F16BA0B620B730B840B71
:1021E000BAF09150A1F0FF0FBB1F661F771F881F29
:1021F000C2F70EC0BA0F621F731F841F48F4879581
:1022000077956795B795F7959E3F08F0B0CF939572
:10221000880F08F09927EE0F9795879508950E94EB
:10222000F21108F481E008950E9428110C942D12F7
:102230000E94261258F00E941F1240F029F45F3FBE
:1022400029F00C94161251110C9461120C941C126A
:102250000E943E1268F39923B1F3552391F3951B25
:10226000550BBB27AA2762177307840738F09F5FB7
:102270005F4F220F331F441FAA1FA9F335D00E2E24
:102280003AF0E0E832D091505040E695001CCAF791
:102290002BD0FE2F29D0660F771F881FBB1F261754
:1022A00037074807AB07B0E809F0BB0B802DBF012B
:1022B000FF2793585F4F3AF09E3F510578F00C94FA
:1022C00016120C9461125F3FE4F3983ED4F38695A6
:1022D00077956795B795F7959F5FC9F7880F911D1B
:1022E0009695879597F90895E1E0660F771F881F07
:1022F000BB1F621773078407BA0720F0621B730BBA
:10230000840BBA0BEE1F88F7E09508950E944612E1
:1023100088F09F5798F0B92F9927B751B0F0E1F0A6
:10232000660F771F881F991F1AF0BA95C9F714C056
:10233000B13091F00E946012B1E008950C946012E7
:10234000672F782F8827B85F39F0B93FCCF386958F
:1023500077956795B395D9F73EF4909580957095EC
:1023600061957F4F8F4F9F4F0895E89409C097FB69
:102370003EF490958095709561957F4F8F4F9F4F5C
:102380009923A9F0F92F96E9BB279395F6958795A0
:1023900077956795B795F111F8CFFAF4BB0F11F463
:1023A00060FF1BC06F5F7F4F8F4F9F4F16C088230A
:1023B00011F096E911C0772321F09EE8872F762F40
:1023C00005C0662371F096E8862F70E060E02AF081
:1023D0009A95660F771F881FDAF7880F969587956D
:1023E00097F90895990F0008550FAA0BE0E8FEEF42
:1023F00016161706E807F907C0F012161306E407C9
:10240000F50798F0621B730B840B950B39F40A26C1
:1024100061F0232B242B252B21F408950A2609F49F
:10242000A140A6958FEF811D811D089597F99F67A3
:1024300080E870E060E008959FEF80EC089500244C
:102440000A941616170618060906089500240A9419
:1024500012161306140605060895092E0394000C9F
:1024600011F4882352F0BB0F40F4BF2B11F460FF2E
:1024700004C06F5F7F4F8F4F9F4F089557FD905857
:10248000440F551F59F05F3F71F04795880F97FB38
:10249000991F61F09F3F79F08795089512161306F2
:1024A0001406551FF2CF4695F1DF08C01616170621
:1024B0001806991FF1CF8695710561050894089556
:1024C000E894BB2766277727CB0197F908950E94E8
:1024D000F21108F48FEF08950E947F120C942D12D0
:1024E0000E941F1238F00E94261220F0952311F04E
:1024F0000C9416120C941C1211240C9461120E945C
:102500003E1270F3959FC1F3950F50E0551F629FE7
:10251000F001729FBB27F00DB11D639FAA27F00D3C
:10252000B11DAA1F649F6627B00DA11D661F829F63
:102530002227B00DA11D621F739FB00DA11D621F48
:10254000839FA00D611D221F749F3327A00D611D65
:10255000231F849F600D211D822F762F6A2F112447
:102560009F5750409AF0F1F088234AF0EE0FFF1F7A
:10257000BB1F661F771F881F91505040A9F79E3FD1
:10258000510580F00C9416120C9461125F3FE4F335
:10259000983ED4F3869577956795B795F795E79527
:1025A0009F5FC1F7FE2B880F911D9695879597F930
:1025B00008950E94F211880B990B0895DB018F9307
:1025C0009F930E942F13BF91AF91A29F800D911DE9
:1025D000A39F900DB29F900D11240895A1E21A2E91
:1025E000AA1BBB1BFD010DC0AA1FBB1FEE1FFF1FB7
:1025F000A217B307E407F50720F0A21BB30BE40B07
:10260000F50B661F771F881F991F1A9469F760954D
:102610007095809590959B01AC01BD01CF01089507
:10262000052E97FB1EF400940E94271357FD07D038
:102630000E94EE1207FC03D04EF40C942713509521
:102640004095309521953F4F4F4F5F4F089590959E
:102650008095709561957F4F8F4F9F4F08950E9491
:102660004813A59F900DB49F900DA49F800D911DC0
:1026700011240895B7FF0C942F130E942F13821B6F
:10268000930B0895EE0FFF1F0590F491E02D099430
:10269000A29FB001B39FC001A39F700D811D1124A3
:1026A000911DB29F700D811D1124911D08950F93EE
:1026B0001F93CF93DF938230910510F482E090E076
:1026C000E0912E03F0912F0330E020E0B0E0A0E095
:1026D000309799F42115310509F44AC0281B390BAC
:1026E00024303105D8F58A819B816115710589F106
:1026F000FB0193838283FE0111C0408151810281DD
:10270000138148175907E0F04817590799F41097B3
:1027100061F012960C93129713961C933296CF0188
:10272000DF91CF911F910F91089500932E03109385
:102730002F03F4CF2115310551F04217530738F01C
:10274000A901DB019A01BD01DF01F801C1CFEF0151
:10275000F9CF90932F0380932E03CDCFFE01E20F8C
:10276000F31F819391932250310939832883D7CF66
:1027700020912C0330912D03232B41F42091020151
:102780003091030130932D0320932C0320910001FD
:10279000309101012115310541F42DB73EB740912B
:1027A000040150910501241B350BE0912C03F0919D
:1027B0002D03E217F307A0F42E1B3F0B2817390750
:1027C00078F0AC014E5F5F4F2417350748F04E0F8D
:1027D0005F1F50932D0340932C03819391939FCFC0
:1027E000F0E0E0E09CCFCF93DF930097E9F0FC01AD
:1027F000329713821282A0912E03B0912F03ED0124
:1028000030E020E01097A1F420813181820F931FE6
:1028100020912C0330912D032817390709F061C04E
:10282000F0932D03E0932C03DF91CF910895EA01FB
:10283000CE17DF07E8F54A815B819E0141155105FE
:10284000B1F7E901FB83EA8349915991C40FD51F80
:10285000EC17FD0761F4808191810296840F951F2A
:10286000E90199838883828193819B838A83F0E045
:10287000E0E012968D919C9113970097B9F52D91F8
:102880003C911197CD010296820F931F20912C034A
:1028900030912D032817390739F6309751F51092EA
:1028A0002F0310922E03B0932D03A0932C03BCCFC3
:1028B000D383C28340815181840F951FC817D907E4
:1028C00061F44E5F5F4F88819981480F591F518392
:1028D00040838A819B81938382832115310509F08E
:1028E000B0CFF0932F03E0932E039ECFFD01DC01C8
:1028F000C0CF13821282D7CF10E0C2E6D0E004C06E
:10290000FE010E9442132196C336D107C9F7F894FD
:02291000FFCFF7
:102912000000300380000000000019027901A601C6
:102922006602D701B501C9010000000086055905FC
:10293200B5052F0552053F05300500000000C1080E
:102942007901B50586026E616E00696E66006F766A
:102952006600424D45323830206572726F72210036
:1029620054656D703A20000D0A0054656D703A008E
:02297200430020
:00000001FF
